{
  "_format": "hh-sol-artifact-1",
  "contractName": "LicenseToken",
  "sourceName": "src/LicenseToken.sol",
  "abi": [
    {
      "inputs": [
        {
          "internalType": "string",
          "name": "baseURI_",
          "type": "string"
        },
        {
          "internalType": "address",
          "name": "admin",
          "type": "address"
        },
        {
          "internalType": "address",
          "name": "revokerMultisig",
          "type": "address"
        }
      ],
      "stateMutability": "nonpayable",
      "type": "constructor"
    },
    {
      "inputs": [],
      "name": "AccessControlBadConfirmation",
      "type": "error"
    },
    {
      "inputs": [
        {
          "internalType": "address",
          "name": "account",
          "type": "address"
        },
        {
          "internalType": "bytes32",
          "name": "neededRole",
          "type": "bytes32"
        }
      ],
      "name": "AccessControlUnauthorizedAccount",
      "type": "error"
    },
    {
      "inputs": [
        {
          "internalType": "address",
          "name": "sender",
          "type": "address"
        },
        {
          "internalType": "uint256",
          "name": "balance",
          "type": "uint256"
        },
        {
          "internalType": "uint256",
          "name": "needed",
          "type": "uint256"
        },
        {
          "internalType": "uint256",
          "name": "tokenId",
          "type": "uint256"
        }
      ],
      "name": "ERC1155InsufficientBalance",
      "type": "error"
    },
    {
      "inputs": [
        {
          "internalType": "address",
          "name": "approver",
          "type": "address"
        }
      ],
      "name": "ERC1155InvalidApprover",
      "type": "error"
    },
    {
      "inputs": [
        {
          "internalType": "uint256",
          "name": "idsLength",
          "type": "uint256"
        },
        {
          "internalType": "uint256",
          "name": "valuesLength",
          "type": "uint256"
        }
      ],
      "name": "ERC1155InvalidArrayLength",
      "type": "error"
    },
    {
      "inputs": [
        {
          "internalType": "address",
          "name": "operator",
          "type": "address"
        }
      ],
      "name": "ERC1155InvalidOperator",
      "type": "error"
    },
    {
      "inputs": [
        {
          "internalType": "address",
          "name": "receiver",
          "type": "address"
        }
      ],
      "name": "ERC1155InvalidReceiver",
      "type": "error"
    },
    {
      "inputs": [
        {
          "internalType": "address",
          "name": "sender",
          "type": "address"
        }
      ],
      "name": "ERC1155InvalidSender",
      "type": "error"
    },
    {
      "inputs": [
        {
          "internalType": "address",
          "name": "operator",
          "type": "address"
        },
        {
          "internalType": "address",
          "name": "owner",
          "type": "address"
        }
      ],
      "name": "ERC1155MissingApprovalForAll",
      "type": "error"
    },
    {
      "anonymous": false,
      "inputs": [
        {
          "indexed": true,
          "internalType": "address",
          "name": "account",
          "type": "address"
        },
        {
          "indexed": true,
          "internalType": "address",
          "name": "operator",
          "type": "address"
        },
        {
          "indexed": false,
          "internalType": "bool",
          "name": "approved",
          "type": "bool"
        }
      ],
      "name": "ApprovalForAll",
      "type": "event"
    },
    {
      "anonymous": false,
      "inputs": [
        {
          "indexed": false,
          "internalType": "string",
          "name": "previousURI",
          "type": "string"
        },
        {
          "indexed": false,
          "internalType": "string",
          "name": "newURI",
          "type": "string"
        }
      ],
      "name": "BaseMetadataURIUpdated",
      "type": "event"
    },
    {
      "anonymous": false,
      "inputs": [
        {
          "indexed": true,
          "internalType": "uint256",
          "name": "licenseId",
          "type": "uint256"
        },
        {
          "indexed": true,
          "internalType": "address",
          "name": "holder",
          "type": "address"
        },
        {
          "indexed": true,
          "internalType": "uint256",
          "name": "nftCollection",
          "type": "uint256"
        },
        {
          "indexed": false,
          "internalType": "uint256",
          "name": "nftTokenId",
          "type": "uint256"
        },
        {
          "indexed": false,
          "internalType": "uint64",
          "name": "startTimestamp",
          "type": "uint64"
        },
        {
          "indexed": false,
          "internalType": "uint64",
          "name": "endTimestamp",
          "type": "uint64"
        },
        {
          "indexed": false,
          "internalType": "uint8",
          "name": "licenseType",
          "type": "uint8"
        },
        {
          "indexed": false,
          "internalType": "uint8",
          "name": "territory",
          "type": "uint8"
        }
      ],
      "name": "LicenseMinted",
      "type": "event"
    },
    {
      "anonymous": false,
      "inputs": [
        {
          "indexed": true,
          "internalType": "uint256",
          "name": "licenseId",
          "type": "uint256"
        },
        {
          "indexed": true,
          "internalType": "address",
          "name": "revokedBy",
          "type": "address"
        },
        {
          "indexed": false,
          "internalType": "string",
          "name": "reason",
          "type": "string"
        }
      ],
      "name": "LicenseRevoked",
      "type": "event"
    },
    {
      "anonymous": false,
      "inputs": [
        {
          "indexed": true,
          "internalType": "bytes32",
          "name": "role",
          "type": "bytes32"
        },
        {
          "indexed": true,
          "internalType": "bytes32",
          "name": "previousAdminRole",
          "type": "bytes32"
        },
        {
          "indexed": true,
          "internalType": "bytes32",
          "name": "newAdminRole",
          "type": "bytes32"
        }
      ],
      "name": "RoleAdminChanged",
      "type": "event"
    },
    {
      "anonymous": false,
      "inputs": [
        {
          "indexed": true,
          "internalType": "bytes32",
          "name": "role",
          "type": "bytes32"
        },
        {
          "indexed": true,
          "internalType": "address",
          "name": "account",
          "type": "address"
        },
        {
          "indexed": true,
          "internalType": "address",
          "name": "sender",
          "type": "address"
        }
      ],
      "name": "RoleGranted",
      "type": "event"
    },
    {
      "anonymous": false,
      "inputs": [
        {
          "indexed": true,
          "internalType": "bytes32",
          "name": "role",
          "type": "bytes32"
        },
        {
          "indexed": true,
          "internalType": "address",
          "name": "account",
          "type": "address"
        },
        {
          "indexed": true,
          "internalType": "address",
          "name": "sender",
          "type": "address"
        }
      ],
      "name": "RoleRevoked",
      "type": "event"
    },
    {
      "anonymous": false,
      "inputs": [
        {
          "indexed": true,
          "internalType": "uint256",
          "name": "licenseId",
          "type": "uint256"
        },
        {
          "indexed": false,
          "internalType": "string",
          "name": "trademarkRef",
          "type": "string"
        },
        {
          "indexed": false,
          "internalType": "bytes32",
          "name": "proofHash",
          "type": "bytes32"
        }
      ],
      "name": "TrademarkLinked",
      "type": "event"
    },
    {
      "anonymous": false,
      "inputs": [
        {
          "indexed": true,
          "internalType": "address",
          "name": "operator",
          "type": "address"
        },
        {
          "indexed": true,
          "internalType": "address",
          "name": "from",
          "type": "address"
        },
        {
          "indexed": true,
          "internalType": "address",
          "name": "to",
          "type": "address"
        },
        {
          "indexed": false,
          "internalType": "uint256[]",
          "name": "ids",
          "type": "uint256[]"
        },
        {
          "indexed": false,
          "internalType": "uint256[]",
          "name": "values",
          "type": "uint256[]"
        }
      ],
      "name": "TransferBatch",
      "type": "event"
    },
    {
      "anonymous": false,
      "inputs": [
        {
          "indexed": true,
          "internalType": "address",
          "name": "operator",
          "type": "address"
        },
        {
          "indexed": true,
          "internalType": "address",
          "name": "from",
          "type": "address"
        },
        {
          "indexed": true,
          "internalType": "address",
          "name": "to",
          "type": "address"
        },
        {
          "indexed": false,
          "internalType": "uint256",
          "name": "id",
          "type": "uint256"
        },
        {
          "indexed": false,
          "internalType": "uint256",
          "name": "value",
          "type": "uint256"
        }
      ],
      "name": "TransferSingle",
      "type": "event"
    },
    {
      "anonymous": false,
      "inputs": [
        {
          "indexed": false,
          "internalType": "string",
          "name": "value",
          "type": "string"
        },
        {
          "indexed": true,
          "internalType": "uint256",
          "name": "id",
          "type": "uint256"
        }
      ],
      "name": "URI",
      "type": "event"
    },
    {
      "inputs": [],
      "name": "DEFAULT_ADMIN_ROLE",
      "outputs": [
        {
          "internalType": "bytes32",
          "name": "",
          "type": "bytes32"
        }
      ],
      "stateMutability": "view",
      "type": "function"
    },
    {
      "inputs": [],
      "name": "LICENSE_COMMERCIAL",
      "outputs": [
        {
          "internalType": "uint8",
          "name": "",
          "type": "uint8"
        }
      ],
      "stateMutability": "view",
      "type": "function"
    },
    {
      "inputs": [],
      "name": "LICENSE_DERIVATIVE",
      "outputs": [
        {
          "internalType": "uint8",
          "name": "",
          "type": "uint8"
        }
      ],
      "stateMutability": "view",
      "type": "function"
    },
    {
      "inputs": [],
      "name": "LICENSE_DISPLAY",
      "outputs": [
        {
          "internalType": "uint8",
          "name": "",
          "type": "uint8"
        }
      ],
      "stateMutability": "view",
      "type": "function"
    },
    {
      "inputs": [],
      "name": "MINTER_ROLE",
      "outputs": [
        {
          "internalType": "bytes32",
          "name": "",
          "type": "bytes32"
        }
      ],
      "stateMutability": "view",
      "type": "function"
    },
    {
      "inputs": [],
      "name": "REVOKER_ROLE",
      "outputs": [
        {
          "internalType": "bytes32",
          "name": "",
          "type": "bytes32"
        }
      ],
      "stateMutability": "view",
      "type": "function"
    },
    {
      "inputs": [],
      "name": "TRADEMARK_ADMIN_ROLE",
      "outputs": [
        {
          "internalType": "bytes32",
          "name": "",
          "type": "bytes32"
        }
      ],
      "stateMutability": "view",
      "type": "function"
    },
    {
      "inputs": [
        {
          "internalType": "address",
          "name": "account",
          "type": "address"
        },
        {
          "internalType": "uint256",
          "name": "id",
          "type": "uint256"
        }
      ],
      "name": "balanceOf",
      "outputs": [
        {
          "internalType": "uint256",
          "name": "",
          "type": "uint256"
        }
      ],
      "stateMutability": "view",
      "type": "function"
    },
    {
      "inputs": [
        {
          "internalType": "address[]",
          "name": "accounts",
          "type": "address[]"
        },
        {
          "internalType": "uint256[]",
          "name": "ids",
          "type": "uint256[]"
        }
      ],
      "name": "balanceOfBatch",
      "outputs": [
        {
          "internalType": "uint256[]",
          "name": "",
          "type": "uint256[]"
        }
      ],
      "stateMutability": "view",
      "type": "function"
    },
    {
      "inputs": [],
      "name": "baseMetadataURI",
      "outputs": [
        {
          "internalType": "string",
          "name": "",
          "type": "string"
        }
      ],
      "stateMutability": "view",
      "type": "function"
    },
    {
      "inputs": [
        {
          "internalType": "uint256",
          "name": "collection",
          "type": "uint256"
        },
        {
          "internalType": "uint256",
          "name": "tokenId",
          "type": "uint256"
        }
      ],
      "name": "getLicensesForNFT",
      "outputs": [
        {
          "components": [
            {
              "internalType": "uint256",
              "name": "licenseId",
              "type": "uint256"
            },
            {
              "internalType": "uint256",
              "name": "nftCollection",
              "type": "uint256"
            },
            {
              "internalType": "uint256",
              "name": "nftTokenId",
              "type": "uint256"
            },
            {
              "internalType": "address",
              "name": "holder",
              "type": "address"
            },
            {
              "internalType": "uint8",
              "name": "licenseType",
              "type": "uint8"
            },
            {
              "internalType": "uint8",
              "name": "territory",
              "type": "uint8"
            },
            {
              "internalType": "uint64",
              "name": "startTimestamp",
              "type": "uint64"
            },
            {
              "internalType": "uint64",
              "name": "endTimestamp",
              "type": "uint64"
            },
            {
              "internalType": "string",
              "name": "trademarkRef",
              "type": "string"
            },
            {
              "internalType": "bytes32",
              "name": "trademarkProofHash",
              "type": "bytes32"
            }
          ],
          "internalType": "struct LicenseToken.ActiveLicenseView[]",
          "name": "activeLicenses",
          "type": "tuple[]"
        }
      ],
      "stateMutability": "view",
      "type": "function"
    },
    {
      "inputs": [
        {
          "internalType": "bytes32",
          "name": "role",
          "type": "bytes32"
        }
      ],
      "name": "getRoleAdmin",
      "outputs": [
        {
          "internalType": "bytes32",
          "name": "",
          "type": "bytes32"
        }
      ],
      "stateMutability": "view",
      "type": "function"
    },
    {
      "inputs": [
        {
          "internalType": "uint256",
          "name": "licenseId",
          "type": "uint256"
        }
      ],
      "name": "getTrademarkLinkage",
      "outputs": [
        {
          "internalType": "string",
          "name": "trademarkRef",
          "type": "string"
        },
        {
          "internalType": "bytes32",
          "name": "proofHash",
          "type": "bytes32"
        }
      ],
      "stateMutability": "view",
      "type": "function"
    },
    {
      "inputs": [
        {
          "internalType": "bytes32",
          "name": "role",
          "type": "bytes32"
        },
        {
          "internalType": "address",
          "name": "account",
          "type": "address"
        }
      ],
      "name": "grantRole",
      "outputs": [],
      "stateMutability": "nonpayable",
      "type": "function"
    },
    {
      "inputs": [
        {
          "internalType": "bytes32",
          "name": "role",
          "type": "bytes32"
        },
        {
          "internalType": "address",
          "name": "account",
          "type": "address"
        }
      ],
      "name": "hasRole",
      "outputs": [
        {
          "internalType": "bool",
          "name": "",
          "type": "bool"
        }
      ],
      "stateMutability": "view",
      "type": "function"
    },
    {
      "inputs": [
        {
          "internalType": "address",
          "name": "account",
          "type": "address"
        },
        {
          "internalType": "address",
          "name": "operator",
          "type": "address"
        }
      ],
      "name": "isApprovedForAll",
      "outputs": [
        {
          "internalType": "bool",
          "name": "",
          "type": "bool"
        }
      ],
      "stateMutability": "view",
      "type": "function"
    },
    {
      "inputs": [
        {
          "internalType": "uint256",
          "name": "licenseId",
          "type": "uint256"
        }
      ],
      "name": "isLicenseValid",
      "outputs": [
        {
          "internalType": "bool",
          "name": "",
          "type": "bool"
        }
      ],
      "stateMutability": "view",
      "type": "function"
    },
    {
      "inputs": [
        {
          "internalType": "uint256",
          "name": "",
          "type": "uint256"
        }
      ],
      "name": "licenses",
      "outputs": [
        {
          "internalType": "uint256",
          "name": "nftCollection",
          "type": "uint256"
        },
        {
          "internalType": "uint256",
          "name": "nftTokenId",
          "type": "uint256"
        },
        {
          "internalType": "address",
          "name": "holder",
          "type": "address"
        },
        {
          "internalType": "uint8",
          "name": "licenseType",
          "type": "uint8"
        },
        {
          "internalType": "uint8",
          "name": "territory",
          "type": "uint8"
        },
        {
          "internalType": "uint64",
          "name": "startTimestamp",
          "type": "uint64"
        },
        {
          "internalType": "uint64",
          "name": "endTimestamp",
          "type": "uint64"
        },
        {
          "internalType": "string",
          "name": "trademarkRef",
          "type": "string"
        },
        {
          "internalType": "bytes32",
          "name": "trademarkProofHash",
          "type": "bytes32"
        },
        {
          "internalType": "bool",
          "name": "revoked",
          "type": "bool"
        },
        {
          "internalType": "uint64",
          "name": "revokedAt",
          "type": "uint64"
        },
        {
          "internalType": "string",
          "name": "revokeReason",
          "type": "string"
        }
      ],
      "stateMutability": "view",
      "type": "function"
    },
    {
      "inputs": [
        {
          "internalType": "address",
          "name": "to",
          "type": "address"
        },
        {
          "internalType": "uint256",
          "name": "nftCollection",
          "type": "uint256"
        },
        {
          "internalType": "uint256",
          "name": "nftTokenId",
          "type": "uint256"
        },
        {
          "internalType": "uint256",
          "name": "durationDays",
          "type": "uint256"
        },
        {
          "internalType": "uint8",
          "name": "licenseType",
          "type": "uint8"
        },
        {
          "internalType": "uint8",
          "name": "territory",
          "type": "uint8"
        },
        {
          "internalType": "string",
          "name": "trademarkRef",
          "type": "string"
        }
      ],
      "name": "mintLicense",
      "outputs": [
        {
          "internalType": "uint256",
          "name": "licenseId",
          "type": "uint256"
        }
      ],
      "stateMutability": "nonpayable",
      "type": "function"
    },
    {
      "inputs": [],
      "name": "nextLicenseId",
      "outputs": [
        {
          "internalType": "uint256",
          "name": "",
          "type": "uint256"
        }
      ],
      "stateMutability": "view",
      "type": "function"
    },
    {
      "inputs": [
        {
          "internalType": "bytes32",
          "name": "role",
          "type": "bytes32"
        },
        {
          "internalType": "address",
          "name": "callerConfirmation",
          "type": "address"
        }
      ],
      "name": "renounceRole",
      "outputs": [],
      "stateMutability": "nonpayable",
      "type": "function"
    },
    {
      "inputs": [
        {
          "internalType": "uint256",
          "name": "licenseId",
          "type": "uint256"
        },
        {
          "internalType": "string",
          "name": "reason",
          "type": "string"
        }
      ],
      "name": "revokeLicense",
      "outputs": [],
      "stateMutability": "nonpayable",
      "type": "function"
    },
    {
      "inputs": [
        {
          "internalType": "bytes32",
          "name": "role",
          "type": "bytes32"
        },
        {
          "internalType": "address",
          "name": "account",
          "type": "address"
        }
      ],
      "name": "revokeRole",
      "outputs": [],
      "stateMutability": "nonpayable",
      "type": "function"
    },
    {
      "inputs": [
        {
          "internalType": "address",
          "name": "from",
          "type": "address"
        },
        {
          "internalType": "address",
          "name": "to",
          "type": "address"
        },
        {
          "internalType": "uint256[]",
          "name": "ids",
          "type": "uint256[]"
        },
        {
          "internalType": "uint256[]",
          "name": "values",
          "type": "uint256[]"
        },
        {
          "internalType": "bytes",
          "name": "data",
          "type": "bytes"
        }
      ],
      "name": "safeBatchTransferFrom",
      "outputs": [],
      "stateMutability": "nonpayable",
      "type": "function"
    },
    {
      "inputs": [
        {
          "internalType": "address",
          "name": "from",
          "type": "address"
        },
        {
          "internalType": "address",
          "name": "to",
          "type": "address"
        },
        {
          "internalType": "uint256",
          "name": "id",
          "type": "uint256"
        },
        {
          "internalType": "uint256",
          "name": "value",
          "type": "uint256"
        },
        {
          "internalType": "bytes",
          "name": "data",
          "type": "bytes"
        }
      ],
      "name": "safeTransferFrom",
      "outputs": [],
      "stateMutability": "nonpayable",
      "type": "function"
    },
    {
      "inputs": [
        {
          "internalType": "address",
          "name": "operator",
          "type": "address"
        },
        {
          "internalType": "bool",
          "name": "approved",
          "type": "bool"
        }
      ],
      "name": "setApprovalForAll",
      "outputs": [],
      "stateMutability": "nonpayable",
      "type": "function"
    },
    {
      "inputs": [
        {
          "internalType": "string",
          "name": "newBaseURI",
          "type": "string"
        }
      ],
      "name": "setBaseMetadataURI",
      "outputs": [],
      "stateMutability": "nonpayable",
      "type": "function"
    },
    {
      "inputs": [
        {
          "internalType": "bytes4",
          "name": "interfaceId",
          "type": "bytes4"
        }
      ],
      "name": "supportsInterface",
      "outputs": [
        {
          "internalType": "bool",
          "name": "",
          "type": "bool"
        }
      ],
      "stateMutability": "view",
      "type": "function"
    },
    {
      "inputs": [
        {
          "internalType": "uint256",
          "name": "licenseId",
          "type": "uint256"
        },
        {
          "internalType": "string",
          "name": "trademarkRef",
          "type": "string"
        },
        {
          "internalType": "bytes32",
          "name": "proofHash",
          "type": "bytes32"
        }
      ],
      "name": "updateTrademarkLinkage",
      "outputs": [],
      "stateMutability": "nonpayable",
      "type": "function"
    },
    {
      "inputs": [
        {
          "internalType": "uint256",
          "name": "tokenId",
          "type": "uint256"
        }
      ],
      "name": "uri",
      "outputs": [
        {
          "internalType": "string",
          "name": "",
          "type": "string"
        }
      ],
      "stateMutability": "view",
      "type": "function"
    }
  ],
  "bytecode": "0x608060405260405180602001604052805f8152506003908161002191906105a8565b5034801561002d575f80fd5b50604051615e13380380615e13833981810160405281019061004f91906107f1565b8261005f816101fa60201b60201c565b505f73ffffffffffffffffffffffffffffffffffffffff168273ffffffffffffffffffffffffffffffffffffffff16036100ce576040517f08c379a00000000000000000000000000000000000000000000000000000000081526004016100c5906108b7565b60405180910390fd5b5f73ffffffffffffffffffffffffffffffffffffffff168173ffffffffffffffffffffffffffffffffffffffff160361013c576040517f08c379a00000000000000000000000000000000000000000000000000000000081526004016101339061091f565b60405180910390fd5b826007908161014b91906105a8565b5061015e5f801b8361020d60201b60201c565b5061018f7f9f2df0fed2c77648de5860a4cc508cd0818c85b8b8a1ab4ceeef8d981c8956a68361020d60201b60201c565b506101c07fcb2ad561528d36f6e7798f5cde5e22a20b3be95ea38606b75a56af6f940924cb8361020d60201b60201c565b506101f17fce3f34913921da558f105cefb578d87278debbbd073a8d552b5de0d168deee308261020d60201b60201c565b5050505061093d565b806002908161020991906105a8565b5050565b5f61021e838361030360201b60201c565b6102f957600160055f8581526020019081526020015f205f015f8473ffffffffffffffffffffffffffffffffffffffff1673ffffffffffffffffffffffffffffffffffffffff1681526020019081526020015f205f6101000a81548160ff02191690831515021790555061029661036760201b60201c565b73ffffffffffffffffffffffffffffffffffffffff168273ffffffffffffffffffffffffffffffffffffffff16847f2f8788117e7eff1d82e926ec794901d17c78024a50270940304540a733656f0d60405160405180910390a4600190506102fd565b5f90505b92915050565b5f60055f8481526020019081526020015f205f015f8373ffffffffffffffffffffffffffffffffffffffff1673ffffffffffffffffffffffffffffffffffffffff1681526020019081526020015f205f9054906101000a900460ff16905092915050565b5f33905090565b5f81519050919050565b7f4e487b71000000000000000000000000000000000000000000000000000000005f52604160045260245ffd5b7f4e487b71000000000000000000000000000000000000000000000000000000005f52602260045260245ffd5b5f60028204905060018216806103e957607f821691505b6020821081036103fc576103fb6103a5565b5b50919050565b5f819050815f5260205f209050919050565b5f6020601f8301049050919050565b5f82821b905092915050565b5f6008830261045e7fffffffffffffffffffffffffffffffffffffffffffffffffffffffffffffffff82610423565b6104688683610423565b95508019841693508086168417925050509392505050565b5f819050919050565b5f819050919050565b5f6104ac6104a76104a284610480565b610489565b610480565b9050919050565b5f819050919050565b6104c583610492565b6104d96104d1826104b3565b84845461042f565b825550505050565b5f90565b6104ed6104e1565b6104f88184846104bc565b505050565b5b8181101561051b576105105f826104e5565b6001810190506104fe565b5050565b601f8211156105605761053181610402565b61053a84610414565b81016020851015610549578190505b61055d61055585610414565b8301826104fd565b50505b505050565b5f82821c905092915050565b5f6105805f1984600802610565565b1980831691505092915050565b5f6105988383610571565b9150826002028217905092915050565b6105b18261036e565b67ffffffffffffffff8111156105ca576105c9610378565b5b6105d482546103d2565b6105df82828561051f565b5f60209050601f831160018114610610575f84156105fe578287015190505b610608858261058d565b86555061066f565b601f19841661061e86610402565b5f5b8281101561064557848901518255600182019150602085019450602081019050610620565b86831015610662578489015161065e601f891682610571565b8355505b6001600288020188555050505b505050505050565b5f604051905090565b5f80fd5b5f80fd5b5f80fd5b5f80fd5b5f601f19601f8301169050919050565b6106a982610690565b810181811067ffffffffffffffff821117156106c8576106c7610378565b5b80604052505050565b5f6106da610677565b90506106e682826106a0565b919050565b5f67ffffffffffffffff82111561070557610704610378565b5b61070e82610690565b9050602081019050919050565b8281835e5f83830152505050565b5f61073b610736846106eb565b6106d1565b9050828152602081018484840111156107575761075661068c565b5b61076284828561071b565b509392505050565b5f82601f83011261077e5761077d610688565b5b815161078e848260208601610729565b91505092915050565b5f73ffffffffffffffffffffffffffffffffffffffff82169050919050565b5f6107c082610797565b9050919050565b6107d0816107b6565b81146107da575f80fd5b50565b5f815190506107eb816107c7565b92915050565b5f805f6060848603121561080857610807610680565b5b5f84015167ffffffffffffffff81111561082557610824610684565b5b6108318682870161076a565b9350506020610842868287016107dd565b9250506040610853868287016107dd565b9150509250925092565b5f82825260208201905092915050565b7f496e76616c69642061646d696e000000000000000000000000000000000000005f82015250565b5f6108a1600d8361085d565b91506108ac8261086d565b602082019050919050565b5f6020820190508181035f8301526108ce81610895565b9050919050565b7f496e76616c6964206d756c7469736967000000000000000000000000000000005f82015250565b5f61090960108361085d565b9150610914826108d5565b602082019050919050565b5f6020820190508181035f830152610936816108fd565b9050919050565b6154c98061094a5f395ff3fe608060405234801561000f575f80fd5b50600436106101d7575f3560e01c80636ce6da0c11610102578063a217fddf116100a0578063d547741f1161006f578063d547741f146105ab578063e985e9c5146105c7578063f242432a146105f7578063fa28d63314610613576101d7565b8063a217fddf14610523578063a22cb46514610541578063b22fee211461055d578063d53913931461058d576101d7565b806391d14854116100dc57806391d14854146104875780639f7fc6d3146104b7578063a09fd556146104e7578063a0d0ddb314610505576101d7565b80636ce6da0c1461041c5780637c4acabf1461044d5780637e518ec81461046b576101d7565b80632f2ff15d1161017a5780633b9646fd116101495780633b9646fd14610392578063492f471c146103b05780634e1273f4146103ce5780635b2bd79e146103fe576101d7565b80632f2ff15d146102ef578063337908451461030b57806334f7adf61461034657806336568abe14610376576101d7565b80630e89341c116101b65780630e89341c146102575780631536033814610287578063248a9ca3146102a35780632eb2c2d6146102d3576101d7565b8062fdd58e146101db57806301ffc9a71461020b5780630be6e2c61461023b575b5f80fd5b6101f560048036038101906101f0919061396f565b610631565b60405161020291906139bc565b60405180910390f35b61022560048036038101906102209190613a2a565b610686565b6040516102329190613a6f565b60405180910390f35b61025560048036038101906102509190613bc4565b610697565b005b610271600480360381019061026c9190613c1e565b6108c9565b60405161027e9190613ca9565b60405180910390f35b6102a1600480360381019061029c9190613cfc565b6109a8565b005b6102bd60048036038101906102b89190613d68565b610b5a565b6040516102ca9190613da2565b60405180910390f35b6102ed60048036038101906102e89190613f1d565b610b77565b005b61030960048036038101906103049190613fe8565b610b9c565b005b61032560048036038101906103209190613c1e565b610bbe565b60405161033d9c9b9a99989796959493929190614072565b60405180910390f35b610360600480360381019061035b9190614138565b610da6565b60405161036d919061439b565b60405180910390f35b610390600480360381019061038b9190613fe8565b61122c565b005b61039a6112a7565b6040516103a791906143bb565b60405180910390f35b6103b86112ac565b6040516103c591906139bc565b60405180910390f35b6103e860048036038101906103e39190614494565b6112b2565b6040516103f591906145b2565b60405180910390f35b6104066113b9565b6040516104139190613ca9565b60405180910390f35b61043660048036038101906104319190613c1e565b611445565b6040516104449291906145d2565b60405180910390f35b61045561176a565b6040516104629190613da2565b60405180910390f35b61048560048036038101906104809190614600565b61178e565b005b6104a1600480360381019061049c9190613fe8565b611892565b6040516104ae9190613a6f565b60405180910390f35b6104d160048036038101906104cc9190613c1e565b6118f6565b6040516104de9190613a6f565b60405180910390f35b6104ef611c36565b6040516104fc91906143bb565b60405180910390f35b61050d611c3b565b60405161051a9190613da2565b60405180910390f35b61052b611c5f565b6040516105389190613da2565b60405180910390f35b61055b60048036038101906105569190614671565b611c65565b005b610577600480360381019061057291906146d9565b611c7b565b60405161058491906139bc565b60405180910390f35b610595612165565b6040516105a29190613da2565b60405180910390f35b6105c560048036038101906105c09190613fe8565b612189565b005b6105e160048036038101906105dc9190614792565b6121ab565b6040516105ee9190613a6f565b60405180910390f35b610611600480360381019061060c91906147d0565b612239565b005b61061b61225e565b60405161062891906143bb565b60405180910390f35b5f805f8381526020019081526020015f205f8473ffffffffffffffffffffffffffffffffffffffff1673ffffffffffffffffffffffffffffffffffffffff1681526020019081526020015f2054905092915050565b5f61069082612263565b9050919050565b7fce3f34913921da558f105cefb578d87278debbbd073a8d552b5de0d168deee306106c1816122dc565b5f60085f8581526020019081526020015f2090505f73ffffffffffffffffffffffffffffffffffffffff16816002015f9054906101000a900473ffffffffffffffffffffffffffffffffffffffff1673ffffffffffffffffffffffffffffffffffffffff1603610766576040517f08c379a000000000000000000000000000000000000000000000000000000000815260040161075d906148ad565b60405180910390fd5b806006015f9054906101000a900460ff16156107b7576040517f08c379a00000000000000000000000000000000000000000000000000000000081526004016107ae90614915565b60405180910390fd5b6001816006015f6101000a81548160ff021916908315150217905550428160060160016101000a81548167ffffffffffffffff021916908367ffffffffffffffff1602179055508281600701908161080f9190614b2d565b505f61083e826002015f9054906101000a900473ffffffffffffffffffffffffffffffffffffffff1686610631565b111561087457610873816002015f9054906101000a900473ffffffffffffffffffffffffffffffffffffffff168560016122f0565b5b3373ffffffffffffffffffffffffffffffffffffffff16847f2b7cc58f47bc3d7d428c5762884c66772aa45284346b22c89c302ca629b40b24856040516108bb9190613ca9565b60405180910390a350505050565b60605f60045f8481526020019081526020015f2080546108e890614960565b80601f016020809104026020016040519081016040528092919081815260200182805461091490614960565b801561095f5780601f106109365761010080835404028352916020019161095f565b820191905f5260205f20905b81548152906001019060200180831161094257829003601f168201915b505050505090505f81511161097c5761097783612393565b6109a0565b600381604051602001610990929190614cb6565b6040516020818303038152906040525b915050919050565b7fcb2ad561528d36f6e7798f5cde5e22a20b3be95ea38606b75a56af6f940924cb6109d2816122dc565b5f60085f8681526020019081526020015f2090505f73ffffffffffffffffffffffffffffffffffffffff16816002015f9054906101000a900473ffffffffffffffffffffffffffffffffffffffff1673ffffffffffffffffffffffffffffffffffffffff1603610a77576040517f08c379a0000000000000000000000000000000000000000000000000000000008152600401610a6e906148ad565b60405180910390fd5b5f845111610aba576040517f08c379a0000000000000000000000000000000000000000000000000000000008152600401610ab190614d23565b60405180910390fd5b5f801b8303610afe576040517f08c379a0000000000000000000000000000000000000000000000000000000008152600401610af590614d8b565b60405180910390fd5b83816004019081610b0f9190614b2d565b50828160050181905550847fac7b3d7b433a31c56513613fed18e3758cdc6e6bbf5a1115905d1fc33de21f678585604051610b4b9291906145d2565b60405180910390a25050505050565b5f60055f8381526020019081526020015f20600101549050919050565b610b88610b82612425565b8661242c565b610b9585858585856124b7565b5050505050565b610ba582610b5a565b610bae816122dc565b610bb883836125ad565b50505050565b6008602052805f5260405f205f91509050805f015490806001015490806002015f9054906101000a900473ffffffffffffffffffffffffffffffffffffffff16908060020160149054906101000a900460ff16908060020160159054906101000a900460ff16908060020160169054906101000a900467ffffffffffffffff1690806003015f9054906101000a900467ffffffffffffffff1690806004018054610c6790614960565b80601f0160208091040260200160405190810160405280929190818152602001828054610c9390614960565b8015610cde5780601f10610cb557610100808354040283529160200191610cde565b820191905f5260205f20905b815481529060010190602001808311610cc157829003601f168201915b505050505090806005015490806006015f9054906101000a900460ff16908060060160019054906101000a900467ffffffffffffffff1690806007018054610d2590614960565b80601f0160208091040260200160405190810160405280929190818152602001828054610d5190614960565b8015610d9c5780601f10610d7357610100808354040283529160200191610d9c565b820191905f5260205f20905b815481529060010190602001808311610d7f57829003601f168201915b505050505090508c565b60605f60095f610db68686612697565b81526020019081526020015f2090505f805b8280549050811015610e1957610df8838281548110610dea57610de9614da9565b5b905f5260205f2001546118f6565b15610e0c578180610e0890614e03565b9250505b8080600101915050610dc8565b508067ffffffffffffffff811115610e3457610e33613aa0565b5b604051908082528060200260200182016040528015610e6d57816020015b610e5a613854565b815260200190600190039081610e525790505b5092505f805b8380549050811015611222575f848281548110610e9357610e92614da9565b5b905f5260205f2001549050610ea7816118f6565b610eb15750611215565b5f60085f8381526020019081526020015f20604051806101800160405290815f820154815260200160018201548152602001600282015f9054906101000a900473ffffffffffffffffffffffffffffffffffffffff1673ffffffffffffffffffffffffffffffffffffffff1673ffffffffffffffffffffffffffffffffffffffff1681526020016002820160149054906101000a900460ff1660ff1660ff1681526020016002820160159054906101000a900460ff1660ff1660ff1681526020016002820160169054906101000a900467ffffffffffffffff1667ffffffffffffffff1667ffffffffffffffff168152602001600382015f9054906101000a900467ffffffffffffffff1667ffffffffffffffff1667ffffffffffffffff168152602001600482018054610fe490614960565b80601f016020809104026020016040519081016040528092919081815260200182805461101090614960565b801561105b5780601f106110325761010080835404028352916020019161105b565b820191905f5260205f20905b81548152906001019060200180831161103e57829003601f168201915b5050505050815260200160058201548152602001600682015f9054906101000a900460ff161515151581526020016006820160019054906101000a900467ffffffffffffffff1667ffffffffffffffff1667ffffffffffffffff1681526020016007820180546110ca90614960565b80601f01602080910402602001604051908101604052809291908181526020018280546110f690614960565b80156111415780601f1061111857610100808354040283529160200191611141565b820191905f5260205f20905b81548152906001019060200180831161112457829003601f168201915b5050505050815250509050604051806101400160405280838152602001825f0151815260200182602001518152602001826040015173ffffffffffffffffffffffffffffffffffffffff168152602001826060015160ff168152602001826080015160ff1681526020018260a0015167ffffffffffffffff1681526020018260c0015167ffffffffffffffff1681526020018260e0015181526020018261010001518152508785815181106111f9576111f8614da9565b5b6020026020010181905250838061120f90614e03565b94505050505b8080600101915050610e73565b5050505092915050565b611234612425565b73ffffffffffffffffffffffffffffffffffffffff168173ffffffffffffffffffffffffffffffffffffffff1614611298576040517f6697b23200000000000000000000000000000000000000000000000000000000815260040160405180910390fd5b6112a282826126c9565b505050565b600381565b60065481565b606081518351146112fe57815183516040517f5b0599910000000000000000000000000000000000000000000000000000000081526004016112f5929190614e4a565b60405180910390fd5b5f835167ffffffffffffffff81111561131a57611319613aa0565b5b6040519080825280602002602001820160405280156113485781602001602082028036833780820191505090505b5090505f5b84518110156113ae5761138461136c82876127b390919063ffffffff16565b61137f83876127c690919063ffffffff16565b610631565b82828151811061139757611396614da9565b5b60200260200101818152505080600101905061134d565b508091505092915050565b600780546113c690614960565b80601f01602080910402602001604051908101604052809291908181526020018280546113f290614960565b801561143d5780601f106114145761010080835404028352916020019161143d565b820191905f5260205f20905b81548152906001019060200180831161142057829003601f168201915b505050505081565b60605f8060085f8581526020019081526020015f20604051806101800160405290815f820154815260200160018201548152602001600282015f9054906101000a900473ffffffffffffffffffffffffffffffffffffffff1673ffffffffffffffffffffffffffffffffffffffff1673ffffffffffffffffffffffffffffffffffffffff1681526020016002820160149054906101000a900460ff1660ff1660ff1681526020016002820160159054906101000a900460ff1660ff1660ff1681526020016002820160169054906101000a900467ffffffffffffffff1667ffffffffffffffff1667ffffffffffffffff168152602001600382015f9054906101000a900467ffffffffffffffff1667ffffffffffffffff1667ffffffffffffffff16815260200160048201805461157b90614960565b80601f01602080910402602001604051908101604052809291908181526020018280546115a790614960565b80156115f25780601f106115c9576101008083540402835291602001916115f2565b820191905f5260205f20905b8154815290600101906020018083116115d557829003601f168201915b5050505050815260200160058201548152602001600682015f9054906101000a900460ff161515151581526020016006820160019054906101000a900467ffffffffffffffff1667ffffffffffffffff1667ffffffffffffffff16815260200160078201805461166190614960565b80601f016020809104026020016040519081016040528092919081815260200182805461168d90614960565b80156116d85780601f106116af576101008083540402835291602001916116d8565b820191905f5260205f20905b8154815290600101906020018083116116bb57829003601f168201915b50505050508152505090505f73ffffffffffffffffffffffffffffffffffffffff16816040015173ffffffffffffffffffffffffffffffffffffffff1603611755576040517f08c379a000000000000000000000000000000000000000000000000000000000815260040161174c906148ad565b60405180910390fd5b8060e001518161010001519250925050915091565b7fce3f34913921da558f105cefb578d87278debbbd073a8d552b5de0d168deee3081565b7fcb2ad561528d36f6e7798f5cde5e22a20b3be95ea38606b75a56af6f940924cb6117b8816122dc565b5f600780546117c690614960565b80601f01602080910402602001604051908101604052809291908181526020018280546117f290614960565b801561183d5780601f106118145761010080835404028352916020019161183d565b820191905f5260205f20905b81548152906001019060200180831161182057829003601f168201915b5050505050905082600790816118539190614b2d565b507fa2fadd2f8e0a2f4cf8554398a0b2818166a1cc95bc929778af66640c78fb51c78184604051611885929190614e71565b60405180910390a1505050565b5f60055f8481526020019081526020015f205f015f8373ffffffffffffffffffffffffffffffffffffffff1673ffffffffffffffffffffffffffffffffffffffff1681526020019081526020015f205f9054906101000a900460ff16905092915050565b5f8060085f8481526020019081526020015f20604051806101800160405290815f820154815260200160018201548152602001600282015f9054906101000a900473ffffffffffffffffffffffffffffffffffffffff1673ffffffffffffffffffffffffffffffffffffffff1673ffffffffffffffffffffffffffffffffffffffff1681526020016002820160149054906101000a900460ff1660ff1660ff1681526020016002820160159054906101000a900460ff1660ff1660ff1681526020016002820160169054906101000a900467ffffffffffffffff1667ffffffffffffffff1667ffffffffffffffff168152602001600382015f9054906101000a900467ffffffffffffffff1667ffffffffffffffff1667ffffffffffffffff168152602001600482018054611a2a90614960565b80601f0160208091040260200160405190810160405280929190818152602001828054611a5690614960565b8015611aa15780601f10611a7857610100808354040283529160200191611aa1565b820191905f5260205f20905b815481529060010190602001808311611a8457829003601f168201915b5050505050815260200160058201548152602001600682015f9054906101000a900460ff161515151581526020016006820160019054906101000a900467ffffffffffffffff1667ffffffffffffffff1667ffffffffffffffff168152602001600782018054611b1090614960565b80601f0160208091040260200160405190810160405280929190818152602001828054611b3c90614960565b8015611b875780601f10611b5e57610100808354040283529160200191611b87565b820191905f5260205f20905b815481529060010190602001808311611b6a57829003601f168201915b50505050508152505090505f73ffffffffffffffffffffffffffffffffffffffff16816040015173ffffffffffffffffffffffffffffffffffffffff1603611bd2575f915050611c31565b80610120015115611be6575f915050611c31565b8060a0015167ffffffffffffffff16421080611c0f57508060c0015167ffffffffffffffff1642115b15611c1d575f915050611c31565b5f611c2c826040015185610631565b119150505b919050565b600181565b7fcb2ad561528d36f6e7798f5cde5e22a20b3be95ea38606b75a56af6f940924cb81565b5f801b81565b611c77611c70612425565b83836127d9565b5050565b5f7f9f2df0fed2c77648de5860a4cc508cd0818c85b8b8a1ab4ceeef8d981c8956a6611ca6816122dc565b5f73ffffffffffffffffffffffffffffffffffffffff168973ffffffffffffffffffffffffffffffffffffffff1603611d14576040517f08c379a0000000000000000000000000000000000000000000000000000000008152600401611d0b90614ef0565b60405180910390fd5b5f8611611d56576040517f08c379a0000000000000000000000000000000000000000000000000000000008152600401611d4d90614f58565b60405180910390fd5b5f835111611d99576040517f08c379a0000000000000000000000000000000000000000000000000000000008152600401611d9090614d23565b60405180910390fd5b60065f8154611da790614e03565b91905081905591505f4290505f6201518088611dc39190614f76565b42611dce9190614fb7565b90505f8a8a8d8a8a87878c604051602001611df09897969594939291906150b7565b6040516020818303038152906040528051906020012090506040518061018001604052808c81526020018b81526020018d73ffffffffffffffffffffffffffffffffffffffff1681526020018960ff1681526020018860ff1681526020018467ffffffffffffffff1681526020018367ffffffffffffffff1681526020018781526020018281526020015f151581526020015f67ffffffffffffffff16815260200160405180602001604052805f81525081525060085f8781526020019081526020015f205f820151815f0155602082015181600101556040820151816002015f6101000a81548173ffffffffffffffffffffffffffffffffffffffff021916908373ffffffffffffffffffffffffffffffffffffffff16021790555060608201518160020160146101000a81548160ff021916908360ff16021790555060808201518160020160156101000a81548160ff021916908360ff16021790555060a08201518160020160166101000a81548167ffffffffffffffff021916908367ffffffffffffffff16021790555060c0820151816003015f6101000a81548167ffffffffffffffff021916908367ffffffffffffffff16021790555060e0820151816004019081611fc19190614b2d565b506101008201518160050155610120820151816006015f6101000a81548160ff0219169083151502179055506101408201518160060160016101000a81548167ffffffffffffffff021916908367ffffffffffffffff1602179055506101608201518160070190816120339190614b2d565b5090505060095f6120448d8d612697565b81526020019081526020015f2085908060018154018082558091505060019003905f5260205f20015f90919091909150556120908c86600160405180602001604052805f8152506129b2565b6120c485600761209f88612a48565b6040516020016120b092919061518e565b604051602081830303815290604052612b12565b8a8c73ffffffffffffffffffffffffffffffffffffffff16867f56210b5cee2e24cd743b30ed1b1ea35c717ce48d6cf803dcd5909e16c26541708d87878e8e6040516121149594939291906151bc565b60405180910390a4847fac7b3d7b433a31c56513613fed18e3758cdc6e6bbf5a1115905d1fc33de21f67878360405161214e9291906145d2565b60405180910390a250505050979650505050505050565b7f9f2df0fed2c77648de5860a4cc508cd0818c85b8b8a1ab4ceeef8d981c8956a681565b61219282610b5a565b61219b816122dc565b6121a583836126c9565b50505050565b5f60015f8473ffffffffffffffffffffffffffffffffffffffff1673ffffffffffffffffffffffffffffffffffffffff1681526020019081526020015f205f8373ffffffffffffffffffffffffffffffffffffffff1673ffffffffffffffffffffffffffffffffffffffff1681526020019081526020015f205f9054906101000a900460ff16905092915050565b61224a612244612425565b8661242c565b6122578585858585612b75565b5050505050565b600281565b5f7f7965db0b000000000000000000000000000000000000000000000000000000007bffffffffffffffffffffffffffffffffffffffffffffffffffffffff1916827bffffffffffffffffffffffffffffffffffffffffffffffffffffffff191614806122d557506122d482612c7c565b5b9050919050565b6122ed816122e8612425565b612d5d565b50565b5f73ffffffffffffffffffffffffffffffffffffffff168373ffffffffffffffffffffffffffffffffffffffff1603612360575f6040517f01a83514000000000000000000000000000000000000000000000000000000008152600401612357919061520d565b60405180910390fd5b5f8061236c8484612dae565b9150915061238c855f848460405180602001604052805f8152505f612dde565b5050505050565b6060600280546123a290614960565b80601f01602080910402602001604051908101604052809291908181526020018280546123ce90614960565b80156124195780601f106123f057610100808354040283529160200191612419565b820191905f5260205f20905b8154815290600101906020018083116123fc57829003601f168201915b50505050509050919050565b5f33905090565b8173ffffffffffffffffffffffffffffffffffffffff168173ffffffffffffffffffffffffffffffffffffffff161415801561246f575061246d81836121ab565b155b156124b35781816040517fe237d9220000000000000000000000000000000000000000000000000000000081526004016124aa929190615226565b60405180910390fd5b5050565b5f73ffffffffffffffffffffffffffffffffffffffff168473ffffffffffffffffffffffffffffffffffffffff1603612527575f6040517f57f447ce00000000000000000000000000000000000000000000000000000000815260040161251e919061520d565b60405180910390fd5b5f73ffffffffffffffffffffffffffffffffffffffff168573ffffffffffffffffffffffffffffffffffffffff1603612597575f6040517f01a8351400000000000000000000000000000000000000000000000000000000815260040161258e919061520d565b60405180910390fd5b6125a685858585856001612dde565b5050505050565b5f6125b88383611892565b61268d57600160055f8581526020019081526020015f205f015f8473ffffffffffffffffffffffffffffffffffffffff1673ffffffffffffffffffffffffffffffffffffffff1681526020019081526020015f205f6101000a81548160ff02191690831515021790555061262a612425565b73ffffffffffffffffffffffffffffffffffffffff168273ffffffffffffffffffffffffffffffffffffffff16847f2f8788117e7eff1d82e926ec794901d17c78024a50270940304540a733656f0d60405160405180910390a460019050612691565b5f90505b92915050565b5f82826040516020016126ab92919061524d565b60405160208183030381529060405280519060200120905092915050565b5f6126d48383611892565b156127a9575f60055f8581526020019081526020015f205f015f8473ffffffffffffffffffffffffffffffffffffffff1673ffffffffffffffffffffffffffffffffffffffff1681526020019081526020015f205f6101000a81548160ff021916908315150217905550612746612425565b73ffffffffffffffffffffffffffffffffffffffff168273ffffffffffffffffffffffffffffffffffffffff16847ff6391f5c32d9c69d2a47ea670b442974b53935d1edc7fd64eb21e047a839171b60405160405180910390a4600190506127ad565b5f90505b92915050565b5f60208202602084010151905092915050565b5f60208202602084010151905092915050565b5f73ffffffffffffffffffffffffffffffffffffffff168373ffffffffffffffffffffffffffffffffffffffff1603612849575f6040517f3e31884e000000000000000000000000000000000000000000000000000000008152600401612840919061520d565b60405180910390fd5b5f73ffffffffffffffffffffffffffffffffffffffff168273ffffffffffffffffffffffffffffffffffffffff16036128b9575f6040517fced3e1000000000000000000000000000000000000000000000000000000000081526004016128b0919061520d565b60405180910390fd5b8060015f8573ffffffffffffffffffffffffffffffffffffffff1673ffffffffffffffffffffffffffffffffffffffff1681526020019081526020015f205f8473ffffffffffffffffffffffffffffffffffffffff1673ffffffffffffffffffffffffffffffffffffffff1681526020019081526020015f205f6101000a81548160ff0219169083151502179055508173ffffffffffffffffffffffffffffffffffffffff168373ffffffffffffffffffffffffffffffffffffffff167f17307eab39ab6107e8899845ad3d59bd9653f200f220920489ca2b5937696c31836040516129a59190613a6f565b60405180910390a3505050565b5f73ffffffffffffffffffffffffffffffffffffffff168473ffffffffffffffffffffffffffffffffffffffff1603612a22575f6040517f57f447ce000000000000000000000000000000000000000000000000000000008152600401612a19919061520d565b60405180910390fd5b5f80612a2e8585612dae565b91509150612a405f878484875f612dde565b505050505050565b60605f6001612a5684612e88565b0190505f8167ffffffffffffffff811115612a7457612a73613aa0565b5b6040519080825280601f01601f191660200182016040528015612aa65781602001600182028036833780820191505090505b5090505f82602083010190505b600115612b07578080600190039150507f3031323334353637383961626364656600000000000000000000000000000000600a86061a8153600a8581612afc57612afb615278565b5b0494505f8503612ab3575b819350505050919050565b8060045f8481526020019081526020015f209081612b309190614b2d565b50817f6bb7ff708619ba0610cba295a58592e0451dee2622938c8755667688daf3529b612b5c846108c9565b604051612b699190613ca9565b60405180910390a25050565b5f73ffffffffffffffffffffffffffffffffffffffff168473ffffffffffffffffffffffffffffffffffffffff1603612be5575f6040517f57f447ce000000000000000000000000000000000000000000000000000000008152600401612bdc919061520d565b60405180910390fd5b5f73ffffffffffffffffffffffffffffffffffffffff168573ffffffffffffffffffffffffffffffffffffffff1603612c55575f6040517f01a83514000000000000000000000000000000000000000000000000000000008152600401612c4c919061520d565b60405180910390fd5b5f80612c618585612dae565b91509150612c7387878484875f612dde565b50505050505050565b5f7fd9b67a26000000000000000000000000000000000000000000000000000000007bffffffffffffffffffffffffffffffffffffffffffffffffffffffff1916827bffffffffffffffffffffffffffffffffffffffffffffffffffffffff19161480612d4657507f0e89341c000000000000000000000000000000000000000000000000000000007bffffffffffffffffffffffffffffffffffffffffffffffffffffffff1916827bffffffffffffffffffffffffffffffffffffffffffffffffffffffff1916145b80612d565750612d5582612fd9565b5b9050919050565b612d678282611892565b612daa5780826040517fe2517d3f000000000000000000000000000000000000000000000000000000008152600401612da19291906152a5565b60405180910390fd5b5050565b60608060405191506001825283602083015260408201905060018152826020820152604081016040529250929050565b612dea86868686613042565b5f73ffffffffffffffffffffffffffffffffffffffff168573ffffffffffffffffffffffffffffffffffffffff1614612e80575f612e26612425565b90508115612e4157612e3c818888888888613166565b612e7e565b5f612e555f876127c690919063ffffffff16565b90505f612e6b5f876127c690919063ffffffff16565b9050612e7b838a8a85858a613315565b50505b505b505050505050565b5f805f90507a184f03e93ff9f4daa797ed6e38ed64bf6a1f0100000000000000008310612ee4577a184f03e93ff9f4daa797ed6e38ed64bf6a1f0100000000000000008381612eda57612ed9615278565b5b0492506040810190505b6d04ee2d6d415b85acef81000000008310612f21576d04ee2d6d415b85acef81000000008381612f1757612f16615278565b5b0492506020810190505b662386f26fc100008310612f5057662386f26fc100008381612f4657612f45615278565b5b0492506010810190505b6305f5e1008310612f79576305f5e1008381612f6f57612f6e615278565b5b0492506008810190505b6127108310612f9e576127108381612f9457612f93615278565b5b0492506004810190505b60648310612fc15760648381612fb757612fb6615278565b5b0492506002810190505b600a8310612fd0576001810190505b80915050919050565b5f7f01ffc9a7000000000000000000000000000000000000000000000000000000007bffffffffffffffffffffffffffffffffffffffffffffffffffffffff1916827bffffffffffffffffffffffffffffffffffffffffffffffffffffffff1916149050919050565b61304e848484846134c4565b5f73ffffffffffffffffffffffffffffffffffffffff168473ffffffffffffffffffffffffffffffffffffffff1614806130b357505f73ffffffffffffffffffffffffffffffffffffffff168373ffffffffffffffffffffffffffffffffffffffff16145b613160575f5b825181101561315e575f8282815181106130d6576130d5614da9565b5b60200260200101511115613151578360085f8584815181106130fb576130fa614da9565b5b602002602001015181526020019081526020015f206002015f6101000a81548173ffffffffffffffffffffffffffffffffffffffff021916908373ffffffffffffffffffffffffffffffffffffffff1602179055505b80806001019150506130b9565b505b50505050565b5f8473ffffffffffffffffffffffffffffffffffffffff163b111561330d578373ffffffffffffffffffffffffffffffffffffffff1663bc197c8187878686866040518663ffffffff1660e01b81526004016131c695949392919061531e565b6020604051808303815f875af192505050801561320157506040513d601f19601f820116820180604052508101906131fe9190615398565b60015b613282573d805f811461322f576040519150601f19603f3d011682016040523d82523d5f602084013e613234565b606091505b505f81510361327a57846040517f57f447ce000000000000000000000000000000000000000000000000000000008152600401613271919061520d565b60405180910390fd5b805160208201fd5b63bc197c8160e01b7bffffffffffffffffffffffffffffffffffffffffffffffffffffffff1916817bffffffffffffffffffffffffffffffffffffffffffffffffffffffff19161461330b57846040517f57f447ce000000000000000000000000000000000000000000000000000000008152600401613302919061520d565b60405180910390fd5b505b505050505050565b5f8473ffffffffffffffffffffffffffffffffffffffff163b11156134bc578373ffffffffffffffffffffffffffffffffffffffff1663f23a6e6187878686866040518663ffffffff1660e01b81526004016133759594939291906153c3565b6020604051808303815f875af19250505080156133b057506040513d601f19601f820116820180604052508101906133ad9190615398565b60015b613431573d805f81146133de576040519150601f19603f3d011682016040523d82523d5f602084013e6133e3565b606091505b505f81510361342957846040517f57f447ce000000000000000000000000000000000000000000000000000000008152600401613420919061520d565b60405180910390fd5b805160208201fd5b63f23a6e6160e01b7bffffffffffffffffffffffffffffffffffffffffffffffffffffffff1916817bffffffffffffffffffffffffffffffffffffffffffffffffffffffff1916146134ba57846040517f57f447ce0000000000000000000000000000000000000000000000000000000081526004016134b1919061520d565b60405180910390fd5b505b505050505050565b805182511461350e57815181516040517f5b059991000000000000000000000000000000000000000000000000000000008152600401613505929190614e4a565b60405180910390fd5b5f613517612425565b90505f5b8351811015613713575f61353882866127c690919063ffffffff16565b90505f61354e83866127c690919063ffffffff16565b90505f73ffffffffffffffffffffffffffffffffffffffff168873ffffffffffffffffffffffffffffffffffffffff1614613671575f805f8481526020019081526020015f205f8a73ffffffffffffffffffffffffffffffffffffffff1673ffffffffffffffffffffffffffffffffffffffff1681526020019081526020015f205490508181101561361d57888183856040517f03dee4c5000000000000000000000000000000000000000000000000000000008152600401613614949392919061541b565b60405180910390fd5b8181035f808581526020019081526020015f205f8b73ffffffffffffffffffffffffffffffffffffffff1673ffffffffffffffffffffffffffffffffffffffff1681526020019081526020015f2081905550505b5f73ffffffffffffffffffffffffffffffffffffffff168773ffffffffffffffffffffffffffffffffffffffff161461370657805f808481526020019081526020015f205f8973ffffffffffffffffffffffffffffffffffffffff1673ffffffffffffffffffffffffffffffffffffffff1681526020019081526020015f205f8282546136fe9190614fb7565b925050819055505b505080600101905061351b565b5060018351036137ce575f6137315f856127c690919063ffffffff16565b90505f6137475f856127c690919063ffffffff16565b90508573ffffffffffffffffffffffffffffffffffffffff168773ffffffffffffffffffffffffffffffffffffffff168473ffffffffffffffffffffffffffffffffffffffff167fc3d58168c5ae7397731d063d5bbf3d657854427343f4c083240f7aacaa2d0f6285856040516137bf929190614e4a565b60405180910390a4505061384d565b8373ffffffffffffffffffffffffffffffffffffffff168573ffffffffffffffffffffffffffffffffffffffff168273ffffffffffffffffffffffffffffffffffffffff167f4a39dc06d4c0dbc64b70af90fd698a233a518aa5d07e595d983b8c0526c8f7fb868660405161384492919061545e565b60405180910390a45b5050505050565b6040518061014001604052805f81526020015f81526020015f81526020015f73ffffffffffffffffffffffffffffffffffffffff1681526020015f60ff1681526020015f60ff1681526020015f67ffffffffffffffff1681526020015f67ffffffffffffffff168152602001606081526020015f80191681525090565b5f604051905090565b5f80fd5b5f80fd5b5f73ffffffffffffffffffffffffffffffffffffffff82169050919050565b5f61390b826138e2565b9050919050565b61391b81613901565b8114613925575f80fd5b50565b5f8135905061393681613912565b92915050565b5f819050919050565b61394e8161393c565b8114613958575f80fd5b50565b5f8135905061396981613945565b92915050565b5f8060408385031215613985576139846138da565b5b5f61399285828601613928565b92505060206139a38582860161395b565b9150509250929050565b6139b68161393c565b82525050565b5f6020820190506139cf5f8301846139ad565b92915050565b5f7fffffffff0000000000000000000000000000000000000000000000000000000082169050919050565b613a09816139d5565b8114613a13575f80fd5b50565b5f81359050613a2481613a00565b92915050565b5f60208284031215613a3f57613a3e6138da565b5b5f613a4c84828501613a16565b91505092915050565b5f8115159050919050565b613a6981613a55565b82525050565b5f602082019050613a825f830184613a60565b92915050565b5f80fd5b5f80fd5b5f601f19601f8301169050919050565b7f4e487b71000000000000000000000000000000000000000000000000000000005f52604160045260245ffd5b613ad682613a90565b810181811067ffffffffffffffff82111715613af557613af4613aa0565b5b80604052505050565b5f613b076138d1565b9050613b138282613acd565b919050565b5f67ffffffffffffffff821115613b3257613b31613aa0565b5b613b3b82613a90565b9050602081019050919050565b828183375f83830152505050565b5f613b68613b6384613b18565b613afe565b905082815260208101848484011115613b8457613b83613a8c565b5b613b8f848285613b48565b509392505050565b5f82601f830112613bab57613baa613a88565b5b8135613bbb848260208601613b56565b91505092915050565b5f8060408385031215613bda57613bd96138da565b5b5f613be78582860161395b565b925050602083013567ffffffffffffffff811115613c0857613c076138de565b5b613c1485828601613b97565b9150509250929050565b5f60208284031215613c3357613c326138da565b5b5f613c408482850161395b565b91505092915050565b5f81519050919050565b5f82825260208201905092915050565b8281835e5f83830152505050565b5f613c7b82613c49565b613c858185613c53565b9350613c95818560208601613c63565b613c9e81613a90565b840191505092915050565b5f6020820190508181035f830152613cc18184613c71565b905092915050565b5f819050919050565b613cdb81613cc9565b8114613ce5575f80fd5b50565b5f81359050613cf681613cd2565b92915050565b5f805f60608486031215613d1357613d126138da565b5b5f613d208682870161395b565b935050602084013567ffffffffffffffff811115613d4157613d406138de565b5b613d4d86828701613b97565b9250506040613d5e86828701613ce8565b9150509250925092565b5f60208284031215613d7d57613d7c6138da565b5b5f613d8a84828501613ce8565b91505092915050565b613d9c81613cc9565b82525050565b5f602082019050613db55f830184613d93565b92915050565b5f67ffffffffffffffff821115613dd557613dd4613aa0565b5b602082029050602081019050919050565b5f80fd5b5f613dfc613df784613dbb565b613afe565b90508083825260208201905060208402830185811115613e1f57613e1e613de6565b5b835b81811015613e485780613e34888261395b565b845260208401935050602081019050613e21565b5050509392505050565b5f82601f830112613e6657613e65613a88565b5b8135613e76848260208601613dea565b91505092915050565b5f67ffffffffffffffff821115613e9957613e98613aa0565b5b613ea282613a90565b9050602081019050919050565b5f613ec1613ebc84613e7f565b613afe565b905082815260208101848484011115613edd57613edc613a8c565b5b613ee8848285613b48565b509392505050565b5f82601f830112613f0457613f03613a88565b5b8135613f14848260208601613eaf565b91505092915050565b5f805f805f60a08688031215613f3657613f356138da565b5b5f613f4388828901613928565b9550506020613f5488828901613928565b945050604086013567ffffffffffffffff811115613f7557613f746138de565b5b613f8188828901613e52565b935050606086013567ffffffffffffffff811115613fa257613fa16138de565b5b613fae88828901613e52565b925050608086013567ffffffffffffffff811115613fcf57613fce6138de565b5b613fdb88828901613ef0565b9150509295509295909350565b5f8060408385031215613ffe57613ffd6138da565b5b5f61400b85828601613ce8565b925050602061401c85828601613928565b9150509250929050565b61402f81613901565b82525050565b5f60ff82169050919050565b61404a81614035565b82525050565b5f67ffffffffffffffff82169050919050565b61406c81614050565b82525050565b5f610180820190506140865f83018f6139ad565b614093602083018e6139ad565b6140a0604083018d614026565b6140ad606083018c614041565b6140ba608083018b614041565b6140c760a083018a614063565b6140d460c0830189614063565b81810360e08301526140e68188613c71565b90506140f6610100830187613d93565b614104610120830186613a60565b614112610140830185614063565b8181036101608301526141258184613c71565b90509d9c50505050505050505050505050565b5f806040838503121561414e5761414d6138da565b5b5f61415b8582860161395b565b925050602061416c8582860161395b565b9150509250929050565b5f81519050919050565b5f82825260208201905092915050565b5f819050602082019050919050565b6141a88161393c565b82525050565b6141b781613901565b82525050565b6141c681614035565b82525050565b6141d581614050565b82525050565b5f82825260208201905092915050565b5f6141f582613c49565b6141ff81856141db565b935061420f818560208601613c63565b61421881613a90565b840191505092915050565b61422c81613cc9565b82525050565b5f61014083015f8301516142485f86018261419f565b50602083015161425b602086018261419f565b50604083015161426e604086018261419f565b50606083015161428160608601826141ae565b50608083015161429460808601826141bd565b5060a08301516142a760a08601826141bd565b5060c08301516142ba60c08601826141cc565b5060e08301516142cd60e08601826141cc565b506101008301518482036101008601526142e782826141eb565b9150506101208301516142fe610120860182614223565b508091505092915050565b5f6143148383614232565b905092915050565b5f602082019050919050565b5f61433282614176565b61433c8185614180565b93508360208202850161434e85614190565b805f5b85811015614389578484038952815161436a8582614309565b94506143758361431c565b925060208a01995050600181019050614351565b50829750879550505050505092915050565b5f6020820190508181035f8301526143b38184614328565b905092915050565b5f6020820190506143ce5f830184614041565b92915050565b5f67ffffffffffffffff8211156143ee576143ed613aa0565b5b602082029050602081019050919050565b5f61441161440c846143d4565b613afe565b9050808382526020820190506020840283018581111561443457614433613de6565b5b835b8181101561445d57806144498882613928565b845260208401935050602081019050614436565b5050509392505050565b5f82601f83011261447b5761447a613a88565b5b813561448b8482602086016143ff565b91505092915050565b5f80604083850312156144aa576144a96138da565b5b5f83013567ffffffffffffffff8111156144c7576144c66138de565b5b6144d385828601614467565b925050602083013567ffffffffffffffff8111156144f4576144f36138de565b5b61450085828601613e52565b9150509250929050565b5f81519050919050565b5f82825260208201905092915050565b5f819050602082019050919050565b5f61453e838361419f565b60208301905092915050565b5f602082019050919050565b5f6145608261450a565b61456a8185614514565b935061457583614524565b805f5b838110156145a557815161458c8882614533565b97506145978361454a565b925050600181019050614578565b5085935050505092915050565b5f6020820190508181035f8301526145ca8184614556565b905092915050565b5f6040820190508181035f8301526145ea8185613c71565b90506145f96020830184613d93565b9392505050565b5f60208284031215614615576146146138da565b5b5f82013567ffffffffffffffff811115614632576146316138de565b5b61463e84828501613b97565b91505092915050565b61465081613a55565b811461465a575f80fd5b50565b5f8135905061466b81614647565b92915050565b5f8060408385031215614687576146866138da565b5b5f61469485828601613928565b92505060206146a58582860161465d565b9150509250929050565b6146b881614035565b81146146c2575f80fd5b50565b5f813590506146d3816146af565b92915050565b5f805f805f805f60e0888a0312156146f4576146f36138da565b5b5f6147018a828b01613928565b97505060206147128a828b0161395b565b96505060406147238a828b0161395b565b95505060606147348a828b0161395b565b94505060806147458a828b016146c5565b93505060a06147568a828b016146c5565b92505060c088013567ffffffffffffffff811115614777576147766138de565b5b6147838a828b01613b97565b91505092959891949750929550565b5f80604083850312156147a8576147a76138da565b5b5f6147b585828601613928565b92505060206147c685828601613928565b9150509250929050565b5f805f805f60a086880312156147e9576147e86138da565b5b5f6147f688828901613928565b955050602061480788828901613928565b94505060406148188882890161395b565b93505060606148298882890161395b565b925050608086013567ffffffffffffffff81111561484a576148496138de565b5b61485688828901613ef0565b9150509295509295909350565b7f4c6963656e7365206e6f7420666f756e640000000000000000000000000000005f82015250565b5f614897601183613c53565b91506148a282614863565b602082019050919050565b5f6020820190508181035f8301526148c48161488b565b9050919050565b7f416c7265616479207265766f6b656400000000000000000000000000000000005f82015250565b5f6148ff600f83613c53565b915061490a826148cb565b602082019050919050565b5f6020820190508181035f83015261492c816148f3565b9050919050565b7f4e487b71000000000000000000000000000000000000000000000000000000005f52602260045260245ffd5b5f600282049050600182168061497757607f821691505b60208210810361498a57614989614933565b5b50919050565b5f819050815f5260205f209050919050565b5f6020601f8301049050919050565b5f82821b905092915050565b5f600883026149ec7fffffffffffffffffffffffffffffffffffffffffffffffffffffffffffffffff826149b1565b6149f686836149b1565b95508019841693508086168417925050509392505050565b5f819050919050565b5f614a31614a2c614a278461393c565b614a0e565b61393c565b9050919050565b5f819050919050565b614a4a83614a17565b614a5e614a5682614a38565b8484546149bd565b825550505050565b5f90565b614a72614a66565b614a7d818484614a41565b505050565b5b81811015614aa057614a955f82614a6a565b600181019050614a83565b5050565b601f821115614ae557614ab681614990565b614abf846149a2565b81016020851015614ace578190505b614ae2614ada856149a2565b830182614a82565b50505b505050565b5f82821c905092915050565b5f614b055f1984600802614aea565b1980831691505092915050565b5f614b1d8383614af6565b9150826002028217905092915050565b614b3682613c49565b67ffffffffffffffff811115614b4f57614b4e613aa0565b5b614b598254614960565b614b64828285614aa4565b5f60209050601f831160018114614b95575f8415614b83578287015190505b614b8d8582614b12565b865550614bf4565b601f198416614ba386614990565b5f5b82811015614bca57848901518255600182019150602085019450602081019050614ba5565b86831015614be75784890151614be3601f891682614af6565b8355505b6001600288020188555050505b505050505050565b5f81905092915050565b5f8154614c1281614960565b614c1c8186614bfc565b9450600182165f8114614c365760018114614c4b57614c7d565b60ff1983168652811515820286019350614c7d565b614c5485614990565b5f5b83811015614c7557815481890152600182019150602081019050614c56565b838801955050505b50505092915050565b5f614c9082613c49565b614c9a8185614bfc565b9350614caa818560208601613c63565b80840191505092915050565b5f614cc18285614c06565b9150614ccd8284614c86565b91508190509392505050565b7f54726164656d61726b20726566207265717569726564000000000000000000005f82015250565b5f614d0d601683613c53565b9150614d1882614cd9565b602082019050919050565b5f6020820190508181035f830152614d3a81614d01565b9050919050565b7f50726f6f662068617368207265717569726564000000000000000000000000005f82015250565b5f614d75601383613c53565b9150614d8082614d41565b602082019050919050565b5f6020820190508181035f830152614da281614d69565b9050919050565b7f4e487b71000000000000000000000000000000000000000000000000000000005f52603260045260245ffd5b7f4e487b71000000000000000000000000000000000000000000000000000000005f52601160045260245ffd5b5f614e0d8261393c565b91507fffffffffffffffffffffffffffffffffffffffffffffffffffffffffffffffff8203614e3f57614e3e614dd6565b5b600182019050919050565b5f604082019050614e5d5f8301856139ad565b614e6a60208301846139ad565b9392505050565b5f6040820190508181035f830152614e898185613c71565b90508181036020830152614e9d8184613c71565b90509392505050565b7f496e76616c696420726563697069656e740000000000000000000000000000005f82015250565b5f614eda601183613c53565b9150614ee582614ea6565b602082019050919050565b5f6020820190508181035f830152614f0781614ece565b9050919050565b7f4475726174696f6e206d757374206265203e20300000000000000000000000005f82015250565b5f614f42601483613c53565b9150614f4d82614f0e565b602082019050919050565b5f6020820190508181035f830152614f6f81614f36565b9050919050565b5f614f808261393c565b9150614f8b8361393c565b9250828202614f998161393c565b91508282048414831517614fb057614faf614dd6565b5b5092915050565b5f614fc18261393c565b9150614fcc8361393c565b9250828201905080821115614fe457614fe3614dd6565b5b92915050565b5f819050919050565b615004614fff8261393c565b614fea565b82525050565b5f8160601b9050919050565b5f6150208261500a565b9050919050565b5f61503182615016565b9050919050565b61504961504482613901565b615027565b82525050565b5f8160f81b9050919050565b5f6150658261504f565b9050919050565b61507d61507882614035565b61505b565b82525050565b5f8160c01b9050919050565b5f61509982615083565b9050919050565b6150b16150ac82614050565b61508f565b82525050565b5f6150c2828b614ff3565b6020820191506150d2828a614ff3565b6020820191506150e28289615038565b6014820191506150f2828861506c565b600182019150615102828761506c565b60018201915061511282866150a0565b60088201915061512282856150a0565b6008820191506151328284614c86565b91508190509998505050505050505050565b7f2e6a736f6e0000000000000000000000000000000000000000000000000000005f82015250565b5f615178600583614bfc565b915061518382615144565b600582019050919050565b5f6151998285614c06565b91506151a58284614c86565b91506151b08261516c565b91508190509392505050565b5f60a0820190506151cf5f8301886139ad565b6151dc6020830187614063565b6151e96040830186614063565b6151f66060830185614041565b6152036080830184614041565b9695505050505050565b5f6020820190506152205f830184614026565b92915050565b5f6040820190506152395f830185614026565b6152466020830184614026565b9392505050565b5f6152588285614ff3565b6020820191506152688284614ff3565b6020820191508190509392505050565b7f4e487b71000000000000000000000000000000000000000000000000000000005f52601260045260245ffd5b5f6040820190506152b85f830185614026565b6152c56020830184613d93565b9392505050565b5f81519050919050565b5f82825260208201905092915050565b5f6152f0826152cc565b6152fa81856152d6565b935061530a818560208601613c63565b61531381613a90565b840191505092915050565b5f60a0820190506153315f830188614026565b61533e6020830187614026565b81810360408301526153508186614556565b905081810360608301526153648185614556565b9050818103608083015261537881846152e6565b90509695505050505050565b5f8151905061539281613a00565b92915050565b5f602082840312156153ad576153ac6138da565b5b5f6153ba84828501615384565b91505092915050565b5f60a0820190506153d65f830188614026565b6153e36020830187614026565b6153f060408301866139ad565b6153fd60608301856139ad565b818103608083015261540f81846152e6565b90509695505050505050565b5f60808201905061542e5f830187614026565b61543b60208301866139ad565b61544860408301856139ad565b61545560608301846139ad565b95945050505050565b5f6040820190508181035f8301526154768185614556565b9050818103602083015261548a8184614556565b9050939250505056fea264697066735822122079c32e066b8c0a1da45198a79174f99ec6a431f087642530d3dfce0d3b30ab2364736f6c634300081a0033",
  "linkReferences": {},
  "deployedLinkReferences": {}
}