{
  "_format": "hh-sol-artifact-1",
  "contractName": "RevenueDistributor",
  "sourceName": "src/RevenueDistributor.sol",
  "abi": [
    {
      "inputs": [
        {
          "internalType": "address",
          "name": "loanEngineAddress",
          "type": "address"
        },
        {
          "internalType": "address",
          "name": "initialOwner",
          "type": "address"
        },
        {
          "internalType": "address",
          "name": "multisigAddress",
          "type": "address"
        },
        {
          "internalType": "address",
          "name": "reserveAddress",
          "type": "address"
        },
        {
          "internalType": "address",
          "name": "treasuryAddress",
          "type": "address"
        },
        {
          "internalType": "address",
          "name": "licenseTokenAddress",
          "type": "address"
        },
        {
          "internalType": "uint8",
          "name": "initialReservePercent",
          "type": "uint8"
        },
        {
          "internalType": "uint8",
          "name": "initialTreasuryPercent",
          "type": "uint8"
        }
      ],
      "stateMutability": "nonpayable",
      "type": "constructor"
    },
    {
      "inputs": [
        {
          "internalType": "address",
          "name": "owner",
          "type": "address"
        }
      ],
      "name": "OwnableInvalidOwner",
      "type": "error"
    },
    {
      "inputs": [
        {
          "internalType": "address",
          "name": "account",
          "type": "address"
        }
      ],
      "name": "OwnableUnauthorizedAccount",
      "type": "error"
    },
    {
      "inputs": [],
      "name": "ReentrancyGuardReentrantCall",
      "type": "error"
    },
    {
      "anonymous": false,
      "inputs": [
        {
          "indexed": true,
          "internalType": "uint256",
          "name": "tokenId",
          "type": "uint256"
        },
        {
          "indexed": false,
          "internalType": "uint256",
          "name": "amount",
          "type": "uint256"
        }
      ],
      "name": "DebtServiced",
      "type": "event"
    },
    {
      "anonymous": false,
      "inputs": [
        {
          "indexed": false,
          "internalType": "uint8",
          "name": "reservePercent",
          "type": "uint8"
        },
        {
          "indexed": false,
          "internalType": "uint8",
          "name": "treasuryPercent",
          "type": "uint8"
        }
      ],
      "name": "DistributionConfigUpdated",
      "type": "event"
    },
    {
      "anonymous": false,
      "inputs": [
        {
          "indexed": true,
          "internalType": "address",
          "name": "oldToken",
          "type": "address"
        },
        {
          "indexed": true,
          "internalType": "address",
          "name": "newToken",
          "type": "address"
        }
      ],
      "name": "LicenseTokenUpdated",
      "type": "event"
    },
    {
      "anonymous": false,
      "inputs": [
        {
          "indexed": true,
          "internalType": "address",
          "name": "oldEngine",
          "type": "address"
        },
        {
          "indexed": true,
          "internalType": "address",
          "name": "newEngine",
          "type": "address"
        }
      ],
      "name": "LoanEngineUpdated",
      "type": "event"
    },
    {
      "anonymous": false,
      "inputs": [
        {
          "indexed": true,
          "internalType": "address",
          "name": "oldWallet",
          "type": "address"
        },
        {
          "indexed": true,
          "internalType": "address",
          "name": "newWallet",
          "type": "address"
        }
      ],
      "name": "MultisigWalletUpdated",
      "type": "event"
    },
    {
      "anonymous": false,
      "inputs": [
        {
          "indexed": true,
          "internalType": "address",
          "name": "previousOwner",
          "type": "address"
        },
        {
          "indexed": true,
          "internalType": "address",
          "name": "newOwner",
          "type": "address"
        }
      ],
      "name": "OwnershipTransferred",
      "type": "event"
    },
    {
      "anonymous": false,
      "inputs": [
        {
          "indexed": true,
          "internalType": "uint256",
          "name": "tokenId",
          "type": "uint256"
        },
        {
          "indexed": false,
          "internalType": "uint256",
          "name": "amount",
          "type": "uint256"
        },
        {
          "indexed": true,
          "internalType": "address",
          "name": "reserveWallet",
          "type": "address"
        }
      ],
      "name": "ReserveAllocated",
      "type": "event"
    },
    {
      "anonymous": false,
      "inputs": [
        {
          "indexed": true,
          "internalType": "address",
          "name": "oldWallet",
          "type": "address"
        },
        {
          "indexed": true,
          "internalType": "address",
          "name": "newWallet",
          "type": "address"
        }
      ],
      "name": "ReserveWalletUpdated",
      "type": "event"
    },
    {
      "anonymous": false,
      "inputs": [
        {
          "indexed": true,
          "internalType": "uint256",
          "name": "tokenId",
          "type": "uint256"
        },
        {
          "indexed": false,
          "internalType": "uint256",
          "name": "amount",
          "type": "uint256"
        },
        {
          "indexed": true,
          "internalType": "address",
          "name": "payer",
          "type": "address"
        }
      ],
      "name": "RevenueReceived",
      "type": "event"
    },
    {
      "anonymous": false,
      "inputs": [
        {
          "indexed": true,
          "internalType": "uint256",
          "name": "tokenId",
          "type": "uint256"
        },
        {
          "indexed": false,
          "internalType": "uint256",
          "name": "treasuryAmount",
          "type": "uint256"
        },
        {
          "indexed": false,
          "internalType": "uint256",
          "name": "licenseAmount",
          "type": "uint256"
        },
        {
          "indexed": true,
          "internalType": "address",
          "name": "treasuryWallet",
          "type": "address"
        },
        {
          "indexed": false,
          "internalType": "address",
          "name": "licenseToken",
          "type": "address"
        }
      ],
      "name": "SurplusDistributed",
      "type": "event"
    },
    {
      "anonymous": false,
      "inputs": [
        {
          "indexed": true,
          "internalType": "address",
          "name": "oldWallet",
          "type": "address"
        },
        {
          "indexed": true,
          "internalType": "address",
          "name": "newWallet",
          "type": "address"
        }
      ],
      "name": "TreasuryWalletUpdated",
      "type": "event"
    },
    {
      "inputs": [],
      "name": "BASIS_POINTS",
      "outputs": [
        {
          "internalType": "uint256",
          "name": "",
          "type": "uint256"
        }
      ],
      "stateMutability": "view",
      "type": "function"
    },
    {
      "inputs": [
        {
          "internalType": "uint256",
          "name": "tokenId",
          "type": "uint256"
        },
        {
          "internalType": "uint256",
          "name": "amount",
          "type": "uint256"
        }
      ],
      "name": "distributeRevenue",
      "outputs": [],
      "stateMutability": "payable",
      "type": "function"
    },
    {
      "inputs": [
        {
          "internalType": "uint256",
          "name": "tokenId",
          "type": "uint256"
        }
      ],
      "name": "getRevenueBreakdown",
      "outputs": [
        {
          "internalType": "uint256",
          "name": "debtAmount",
          "type": "uint256"
        },
        {
          "internalType": "uint256",
          "name": "reserveAmount",
          "type": "uint256"
        },
        {
          "internalType": "uint256",
          "name": "surplusAmount",
          "type": "uint256"
        }
      ],
      "stateMutability": "view",
      "type": "function"
    },
    {
      "inputs": [
        {
          "internalType": "uint256",
          "name": "",
          "type": "uint256"
        }
      ],
      "name": "lastBreakdownByToken",
      "outputs": [
        {
          "internalType": "uint256",
          "name": "debtAmount",
          "type": "uint256"
        },
        {
          "internalType": "uint256",
          "name": "reserveAmount",
          "type": "uint256"
        },
        {
          "internalType": "uint256",
          "name": "surplusAmount",
          "type": "uint256"
        }
      ],
      "stateMutability": "view",
      "type": "function"
    },
    {
      "inputs": [],
      "name": "licenseToken",
      "outputs": [
        {
          "internalType": "address",
          "name": "",
          "type": "address"
        }
      ],
      "stateMutability": "view",
      "type": "function"
    },
    {
      "inputs": [],
      "name": "loanEngine",
      "outputs": [
        {
          "internalType": "contract ILoanEngineRevenue",
          "name": "",
          "type": "address"
        }
      ],
      "stateMutability": "view",
      "type": "function"
    },
    {
      "inputs": [],
      "name": "multisigWallet",
      "outputs": [
        {
          "internalType": "address",
          "name": "",
          "type": "address"
        }
      ],
      "stateMutability": "view",
      "type": "function"
    },
    {
      "inputs": [],
      "name": "owner",
      "outputs": [
        {
          "internalType": "address",
          "name": "",
          "type": "address"
        }
      ],
      "stateMutability": "view",
      "type": "function"
    },
    {
      "inputs": [],
      "name": "renounceOwnership",
      "outputs": [],
      "stateMutability": "nonpayable",
      "type": "function"
    },
    {
      "inputs": [],
      "name": "reservePercent",
      "outputs": [
        {
          "internalType": "uint8",
          "name": "",
          "type": "uint8"
        }
      ],
      "stateMutability": "view",
      "type": "function"
    },
    {
      "inputs": [],
      "name": "reserveWallet",
      "outputs": [
        {
          "internalType": "address",
          "name": "",
          "type": "address"
        }
      ],
      "stateMutability": "view",
      "type": "function"
    },
    {
      "inputs": [
        {
          "internalType": "uint8",
          "name": "newReservePercent",
          "type": "uint8"
        },
        {
          "internalType": "uint8",
          "name": "newTreasuryPercent",
          "type": "uint8"
        }
      ],
      "name": "setDistributionConfig",
      "outputs": [],
      "stateMutability": "nonpayable",
      "type": "function"
    },
    {
      "inputs": [
        {
          "internalType": "address",
          "name": "newLicenseToken",
          "type": "address"
        }
      ],
      "name": "setLicenseToken",
      "outputs": [],
      "stateMutability": "nonpayable",
      "type": "function"
    },
    {
      "inputs": [
        {
          "internalType": "address",
          "name": "newLoanEngine",
          "type": "address"
        }
      ],
      "name": "setLoanEngine",
      "outputs": [],
      "stateMutability": "nonpayable",
      "type": "function"
    },
    {
      "inputs": [
        {
          "internalType": "address",
          "name": "newMultisig",
          "type": "address"
        }
      ],
      "name": "setMultisigWallet",
      "outputs": [],
      "stateMutability": "nonpayable",
      "type": "function"
    },
    {
      "inputs": [
        {
          "internalType": "address",
          "name": "newReserve",
          "type": "address"
        }
      ],
      "name": "setReserveWallet",
      "outputs": [],
      "stateMutability": "nonpayable",
      "type": "function"
    },
    {
      "inputs": [
        {
          "internalType": "address",
          "name": "newTreasury",
          "type": "address"
        }
      ],
      "name": "setTreasuryWallet",
      "outputs": [],
      "stateMutability": "nonpayable",
      "type": "function"
    },
    {
      "inputs": [
        {
          "internalType": "address",
          "name": "newOwner",
          "type": "address"
        }
      ],
      "name": "transferOwnership",
      "outputs": [],
      "stateMutability": "nonpayable",
      "type": "function"
    },
    {
      "inputs": [],
      "name": "treasuryPercent",
      "outputs": [
        {
          "internalType": "uint8",
          "name": "",
          "type": "uint8"
        }
      ],
      "stateMutability": "view",
      "type": "function"
    },
    {
      "inputs": [],
      "name": "treasuryWallet",
      "outputs": [
        {
          "internalType": "address",
          "name": "",
          "type": "address"
        }
      ],
      "stateMutability": "view",
      "type": "function"
    }
  ],
  "bytecode": "0x608060405234801561000f575f80fd5b5060405161344938038061344983398181016040528101906100319190610736565b865f73ffffffffffffffffffffffffffffffffffffffff168173ffffffffffffffffffffffffffffffffffffffff16036100a2575f6040517f1e4fbdf700000000000000000000000000000000000000000000000000000000815260040161009991906107f6565b60405180910390fd5b6100b18161045960201b60201c565b5060016100d06100c561051a60201b60201c565b61054360201b60201c565b5f01819055505f73ffffffffffffffffffffffffffffffffffffffff168873ffffffffffffffffffffffffffffffffffffffff1603610144576040517f08c379a000000000000000000000000000000000000000000000000000000000815260040161013b90610869565b60405180910390fd5b5f73ffffffffffffffffffffffffffffffffffffffff168773ffffffffffffffffffffffffffffffffffffffff16036101b2576040517f08c379a00000000000000000000000000000000000000000000000000000000081526004016101a9906108d1565b60405180910390fd5b5f73ffffffffffffffffffffffffffffffffffffffff168673ffffffffffffffffffffffffffffffffffffffff1603610220576040517f08c379a000000000000000000000000000000000000000000000000000000000815260040161021790610939565b60405180910390fd5b5f73ffffffffffffffffffffffffffffffffffffffff168573ffffffffffffffffffffffffffffffffffffffff160361028e576040517f08c379a0000000000000000000000000000000000000000000000000000000008152600401610285906109a1565b60405180910390fd5b5f73ffffffffffffffffffffffffffffffffffffffff168473ffffffffffffffffffffffffffffffffffffffff16036102fc576040517f08c379a00000000000000000000000000000000000000000000000000000000081526004016102f390610a09565b60405180910390fd5b8760015f6101000a81548173ffffffffffffffffffffffffffffffffffffffff021916908373ffffffffffffffffffffffffffffffffffffffff1602179055508560025f6101000a81548173ffffffffffffffffffffffffffffffffffffffff021916908373ffffffffffffffffffffffffffffffffffffffff1602179055508460035f6101000a81548173ffffffffffffffffffffffffffffffffffffffff021916908373ffffffffffffffffffffffffffffffffffffffff1602179055508360045f6101000a81548173ffffffffffffffffffffffffffffffffffffffff021916908373ffffffffffffffffffffffffffffffffffffffff1602179055508260055f6101000a81548173ffffffffffffffffffffffffffffffffffffffff021916908373ffffffffffffffffffffffffffffffffffffffff16021790555061044c828261054c60201b60201c565b5050505050505050610bfe565b5f805f9054906101000a900473ffffffffffffffffffffffffffffffffffffffff169050815f806101000a81548173ffffffffffffffffffffffffffffffffffffffff021916908373ffffffffffffffffffffffffffffffffffffffff1602179055508173ffffffffffffffffffffffffffffffffffffffff168173ffffffffffffffffffffffffffffffffffffffff167f8be0079c531659141344cd1fd0a4f28419497f9722a3daafe3b4186f6b6457e060405160405180910390a35050565b5f7f9b779b17422d0df92223018b32b4d1fa46e071723d6817e2486d003becc55f005f1b905090565b5f819050919050565b60648260ff161115610593576040517f08c379a000000000000000000000000000000000000000000000000000000000815260040161058a90610a71565b60405180910390fd5b60648160ff1611156105da576040517f08c379a00000000000000000000000000000000000000000000000000000000081526004016105d190610ad9565b60405180910390fd5b60648160ff168360ff166105ee9190610b2d565b111561062f576040517f08c379a000000000000000000000000000000000000000000000000000000000815260040161062690610baa565b60405180910390fd5b81600560146101000a81548160ff021916908360ff16021790555080600560156101000a81548160ff021916908360ff1602179055507f638bc6bdf09408be08402506a3cece436130cc47708df908b7ee4aeeefe01c478282604051610696929190610bd7565b60405180910390a15050565b5f80fd5b5f73ffffffffffffffffffffffffffffffffffffffff82169050919050565b5f6106cf826106a6565b9050919050565b6106df816106c5565b81146106e9575f80fd5b50565b5f815190506106fa816106d6565b92915050565b5f60ff82169050919050565b61071581610700565b811461071f575f80fd5b50565b5f815190506107308161070c565b92915050565b5f805f805f805f80610100898b031215610753576107526106a2565b5b5f6107608b828c016106ec565b98505060206107718b828c016106ec565b97505060406107828b828c016106ec565b96505060606107938b828c016106ec565b95505060806107a48b828c016106ec565b94505060a06107b58b828c016106ec565b93505060c06107c68b828c01610722565b92505060e06107d78b828c01610722565b9150509295985092959890939650565b6107f0816106c5565b82525050565b5f6020820190506108095f8301846107e7565b92915050565b5f82825260208201905092915050565b7f496e76616c6964206c6f616e20656e67696e65000000000000000000000000005f82015250565b5f61085360138361080f565b915061085e8261081f565b602082019050919050565b5f6020820190508181035f83015261088081610847565b9050919050565b7f496e76616c6964206f776e6572000000000000000000000000000000000000005f82015250565b5f6108bb600d8361080f565b91506108c682610887565b602082019050919050565b5f6020820190508181035f8301526108e8816108af565b9050919050565b7f496e76616c6964206d756c7469736967000000000000000000000000000000005f82015250565b5f61092360108361080f565b915061092e826108ef565b602082019050919050565b5f6020820190508181035f83015261095081610917565b9050919050565b7f496e76616c6964207265736572766500000000000000000000000000000000005f82015250565b5f61098b600f8361080f565b915061099682610957565b602082019050919050565b5f6020820190508181035f8301526109b88161097f565b9050919050565b7f496e76616c6964207472656173757279000000000000000000000000000000005f82015250565b5f6109f360108361080f565b91506109fe826109bf565b602082019050919050565b5f6020820190508181035f830152610a20816109e7565b9050919050565b7f52657365727665203e20313030000000000000000000000000000000000000005f82015250565b5f610a5b600d8361080f565b9150610a6682610a27565b602082019050919050565b5f6020820190508181035f830152610a8881610a4f565b9050919050565b7f5472656173757279203e203130300000000000000000000000000000000000005f82015250565b5f610ac3600e8361080f565b9150610ace82610a8f565b602082019050919050565b5f6020820190508181035f830152610af081610ab7565b9050919050565b5f819050919050565b7f4e487b71000000000000000000000000000000000000000000000000000000005f52601160045260245ffd5b5f610b3782610af7565b9150610b4283610af7565b9250828201905080821115610b5a57610b59610b00565b5b92915050565b7f436f6e666967206f766572666c6f7700000000000000000000000000000000005f82015250565b5f610b94600f8361080f565b9150610b9f82610b60565b602082019050919050565b5f6020820190508181035f830152610bc181610b88565b9050919050565b610bd181610700565b82525050565b5f604082019050610bea5f830185610bc8565b610bf76020830184610bc8565b9392505050565b61283e80610c0b5f395ff3fe60806040526004361061011e575f3560e01c80636d3c18d31161009f578063d72b11bd11610063578063d72b11bd14610394578063dda4fa8f146103be578063e1f1c4a7146103e6578063f2fde38b14610410578063f8c77463146104385761011e565b80636d3c18d3146102da578063715018a6146103025780638da5cb5b146103185780639075becf14610342578063a8602fea1461036c5761011e565b80634ae699ef116100e65780634ae699ef1461020657806351455fb81461022257806351ec5382146102605780635735117a1461028a57806364913477146102b25761011e565b806302812af31461012257806304ef9d5814610160578063313b77a11461018a57806343646f70146101b25780634626402b146101dc575b5f80fd5b34801561012d575f80fd5b5061014860048036038101906101439190611e19565b610462565b60405161015793929190611e53565b60405180910390f35b34801561016b575f80fd5b506101746104bd565b6040516101819190611ea3565b60405180910390f35b348015610195575f80fd5b506101b060048036038101906101ab9190611ee6565b6104d0565b005b3480156101bd575f80fd5b506101c66105aa565b6040516101d39190611f9e565b60405180910390f35b3480156101e7575f80fd5b506101f06105cf565b6040516101fd9190611fd7565b60405180910390f35b610220600480360381019061021b9190611ff0565b6105f4565b005b34801561022d575f80fd5b5061024860048036038101906102439190611e19565b610cda565b60405161025793929190611e53565b60405180910390f35b34801561026b575f80fd5b50610274610d00565b6040516102819190611fd7565b60405180910390f35b348015610295575f80fd5b506102b060048036038101906102ab9190612058565b610d25565b005b3480156102bd575f80fd5b506102d860048036038101906102d39190612058565b610f22565b005b3480156102e5575f80fd5b5061030060048036038101906102fb9190612058565b61105b565b005b34801561030d575f80fd5b506103166111ea565b005b348015610323575f80fd5b5061032c6111fd565b6040516103399190611fd7565b60405180910390f35b34801561034d575f80fd5b50610356611224565b6040516103639190611fd7565b60405180910390f35b348015610377575f80fd5b50610392600480360381019061038d9190612058565b611249565b005b34801561039f575f80fd5b506103a8611446565b6040516103b59190611fd7565b60405180910390f35b3480156103c9575f80fd5b506103e460048036038101906103df9190612058565b61146b565b005b3480156103f1575f80fd5b506103fa611668565b6040516104079190612083565b60405180910390f35b34801561041b575f80fd5b5061043660048036038101906104319190612058565b61166e565b005b348015610443575f80fd5b5061044c6116f2565b6040516104599190611ea3565b60405180910390f35b5f805f8060065f8681526020019081526020015f206040518060600160405290815f8201548152602001600182015481526020016002820154815250509050805f015181602001518260400151935093509350509193909250565b600560159054906101000a900460ff1681565b6104d86111fd565b73ffffffffffffffffffffffffffffffffffffffff163373ffffffffffffffffffffffffffffffffffffffff16148061055d575060025f9054906101000a900473ffffffffffffffffffffffffffffffffffffffff1673ffffffffffffffffffffffffffffffffffffffff163373ffffffffffffffffffffffffffffffffffffffff16145b61059c576040517f08c379a0000000000000000000000000000000000000000000000000000000008152600401610593906120f6565b60405180910390fd5b6105a68282611705565b5050565b60015f9054906101000a900473ffffffffffffffffffffffffffffffffffffffff1681565b60045f9054906101000a900473ffffffffffffffffffffffffffffffffffffffff1681565b6105fc61185b565b5f811161063e576040517f08c379a00000000000000000000000000000000000000000000000000000000081526004016106359061215e565b60405180910390fd5b803414610680576040517f08c379a0000000000000000000000000000000000000000000000000000000008152600401610677906121c6565b60405180910390fd5b3373ffffffffffffffffffffffffffffffffffffffff16827fda60f2c35ba841a8dc24a2ab7a21d82d688090d569bb1fc1a686a36bb54eeec5836040516106c79190612083565b60405180910390a35f8190505f60015f9054906101000a900473ffffffffffffffffffffffffffffffffffffffff1673ffffffffffffffffffffffffffffffffffffffff16637d9fa2b4856040518263ffffffff1660e01b815260040161072e9190612083565b602060405180830381865afa158015610749573d5f803e3d5ffd5b505050506040513d601f19601f8201168201806040525081019061076d9190612219565b90505f6107798561187d565b9050818061078657505f81115b15610a11575f8060015f9054906101000a900473ffffffffffffffffffffffffffffffffffffffff1673ffffffffffffffffffffffffffffffffffffffff1663e66b53e986896040518363ffffffff1660e01b81526004016107e89190612083565b604080518083038185885af1158015610803573d5f803e3d5ffd5b50505050506040513d601f19601f820116820180604052508101906108289190612258565b915091505f82111561086d57867fdc5ac70499238bcbcf5e0e0f88bbcfe7fd4435104478a65ab0258f78e3ff5ef7836040516108649190612083565b60405180910390a25b8094506108798761187d565b925083801561088757505f85115b156109b2576108ed60035f9054906101000a900473ffffffffffffffffffffffffffffffffffffffff16866040518060400160405280601781526020017f52657365727665207472616e73666572206661696c65640000000000000000008152506119c0565b60035f9054906101000a900473ffffffffffffffffffffffffffffffffffffffff1673ffffffffffffffffffffffffffffffffffffffff16877f0458659cbf909bd784338ae4cd620cb6ce1147754d2372369594400d53abe098876040516109559190612083565b60405180910390a360405180606001604052808381526020018681526020015f81525060065f8981526020019081526020015f205f820151815f015560208201518160010155604082015181600201559050505050505050610cce565b5f8503610a0e5760405180606001604052808381526020015f81526020015f81525060065f8981526020019081526020015f205f820151815f015560208201518160010155604082015181600201559050505050505050610cce565b50505b5f6064600560149054906101000a900460ff1660ff1685610a3291906122c3565b610a3c9190612331565b90505f6064600560159054906101000a900460ff1660ff1686610a5f91906122c3565b610a699190612331565b90505f818387610a799190612361565b610a839190612361565b90505f831115610b5f57610aee60035f9054906101000a900473ffffffffffffffffffffffffffffffffffffffff16846040518060400160405280601781526020017f52657365727665207472616e73666572206661696c65640000000000000000008152506119c0565b60035f9054906101000a900473ffffffffffffffffffffffffffffffffffffffff1673ffffffffffffffffffffffffffffffffffffffff16887f0458659cbf909bd784338ae4cd620cb6ce1147754d2372369594400d53abe09885604051610b569190612083565b60405180910390a35b5f821115610bc957610bc860045f9054906101000a900473ffffffffffffffffffffffffffffffffffffffff16836040518060400160405280601881526020017f5472656173757279207472616e73666572206661696c656400000000000000008152506119c0565b5b5f811115610bdc57610bdb8882611a72565b5b60045f9054906101000a900473ffffffffffffffffffffffffffffffffffffffff1673ffffffffffffffffffffffffffffffffffffffff16887f4b453ad4b5a83eda344cb66f8a2a60c8858a770707e6627478e3abd86eada884848460055f9054906101000a900473ffffffffffffffffffffffffffffffffffffffff16604051610c6993929190612394565b60405180910390a360405180606001604052805f81526020018481526020018284610c9491906123c9565b81525060065f8a81526020019081526020015f205f820151815f015560208201518160010155604082015181600201559050505050505050505b610cd6611bea565b5050565b6006602052805f5260405f205f91509050805f0154908060010154908060020154905083565b60055f9054906101000a900473ffffffffffffffffffffffffffffffffffffffff1681565b610d2d6111fd565b73ffffffffffffffffffffffffffffffffffffffff163373ffffffffffffffffffffffffffffffffffffffff161480610db2575060025f9054906101000a900473ffffffffffffffffffffffffffffffffffffffff1673ffffffffffffffffffffffffffffffffffffffff163373ffffffffffffffffffffffffffffffffffffffff16145b610df1576040517f08c379a0000000000000000000000000000000000000000000000000000000008152600401610de8906120f6565b60405180910390fd5b5f73ffffffffffffffffffffffffffffffffffffffff168173ffffffffffffffffffffffffffffffffffffffff1603610e5f576040517f08c379a0000000000000000000000000000000000000000000000000000000008152600401610e5690612446565b60405180910390fd5b5f60015f9054906101000a900473ffffffffffffffffffffffffffffffffffffffff1690508160015f6101000a81548173ffffffffffffffffffffffffffffffffffffffff021916908373ffffffffffffffffffffffffffffffffffffffff1602179055508173ffffffffffffffffffffffffffffffffffffffff168173ffffffffffffffffffffffffffffffffffffffff167f4572c42822267c0a8b0f8ffcde5ac6b25e903e9dc1425a092894637d50aaec3d60405160405180910390a35050565b610f2a611c04565b5f73ffffffffffffffffffffffffffffffffffffffff168173ffffffffffffffffffffffffffffffffffffffff1603610f98576040517f08c379a0000000000000000000000000000000000000000000000000000000008152600401610f8f906124ae565b60405180910390fd5b5f60025f9054906101000a900473ffffffffffffffffffffffffffffffffffffffff1690508160025f6101000a81548173ffffffffffffffffffffffffffffffffffffffff021916908373ffffffffffffffffffffffffffffffffffffffff1602179055508173ffffffffffffffffffffffffffffffffffffffff168173ffffffffffffffffffffffffffffffffffffffff167f86e5a79b116b1b58296614b8323eb315c7f0d67c5786fe97e11afc17fcb5b61960405160405180910390a35050565b6110636111fd565b73ffffffffffffffffffffffffffffffffffffffff163373ffffffffffffffffffffffffffffffffffffffff1614806110e8575060025f9054906101000a900473ffffffffffffffffffffffffffffffffffffffff1673ffffffffffffffffffffffffffffffffffffffff163373ffffffffffffffffffffffffffffffffffffffff16145b611127576040517f08c379a000000000000000000000000000000000000000000000000000000000815260040161111e906120f6565b60405180910390fd5b5f60055f9054906101000a900473ffffffffffffffffffffffffffffffffffffffff1690508160055f6101000a81548173ffffffffffffffffffffffffffffffffffffffff021916908373ffffffffffffffffffffffffffffffffffffffff1602179055508173ffffffffffffffffffffffffffffffffffffffff168173ffffffffffffffffffffffffffffffffffffffff167f361db80c3be63ee252a6ae926faada6496f0566d3b06f5d9507d55d3a9fee14860405160405180910390a35050565b6111f2611c04565b6111fb5f611c8b565b565b5f805f9054906101000a900473ffffffffffffffffffffffffffffffffffffffff16905090565b60025f9054906101000a900473ffffffffffffffffffffffffffffffffffffffff1681565b6112516111fd565b73ffffffffffffffffffffffffffffffffffffffff163373ffffffffffffffffffffffffffffffffffffffff1614806112d6575060025f9054906101000a900473ffffffffffffffffffffffffffffffffffffffff1673ffffffffffffffffffffffffffffffffffffffff163373ffffffffffffffffffffffffffffffffffffffff16145b611315576040517f08c379a000000000000000000000000000000000000000000000000000000000815260040161130c906120f6565b60405180910390fd5b5f73ffffffffffffffffffffffffffffffffffffffff168173ffffffffffffffffffffffffffffffffffffffff1603611383576040517f08c379a000000000000000000000000000000000000000000000000000000000815260040161137a90612516565b60405180910390fd5b5f60045f9054906101000a900473ffffffffffffffffffffffffffffffffffffffff1690508160045f6101000a81548173ffffffffffffffffffffffffffffffffffffffff021916908373ffffffffffffffffffffffffffffffffffffffff1602179055508173ffffffffffffffffffffffffffffffffffffffff168173ffffffffffffffffffffffffffffffffffffffff167fa982575859d7ad2f390dc12b23f7dab8bbda047f9d0140ac68344b27bf34bfb460405160405180910390a35050565b60035f9054906101000a900473ffffffffffffffffffffffffffffffffffffffff1681565b6114736111fd565b73ffffffffffffffffffffffffffffffffffffffff163373ffffffffffffffffffffffffffffffffffffffff1614806114f8575060025f9054906101000a900473ffffffffffffffffffffffffffffffffffffffff1673ffffffffffffffffffffffffffffffffffffffff163373ffffffffffffffffffffffffffffffffffffffff16145b611537576040517f08c379a000000000000000000000000000000000000000000000000000000000815260040161152e906120f6565b60405180910390fd5b5f73ffffffffffffffffffffffffffffffffffffffff168173ffffffffffffffffffffffffffffffffffffffff16036115a5576040517f08c379a000000000000000000000000000000000000000000000000000000000815260040161159c9061257e565b60405180910390fd5b5f60035f9054906101000a900473ffffffffffffffffffffffffffffffffffffffff1690508160035f6101000a81548173ffffffffffffffffffffffffffffffffffffffff021916908373ffffffffffffffffffffffffffffffffffffffff1602179055508173ffffffffffffffffffffffffffffffffffffffff168173ffffffffffffffffffffffffffffffffffffffff167fab4955c2cf65d867be4283a83bbbda3eed4fcb13202c1a1cb7e35accb3370df560405160405180910390a35050565b61271081565b611676611c04565b5f73ffffffffffffffffffffffffffffffffffffffff168173ffffffffffffffffffffffffffffffffffffffff16036116e6575f6040517f1e4fbdf70000000000000000000000000000000000000000000000000000000081526004016116dd9190611fd7565b60405180910390fd5b6116ef81611c8b565b50565b600560149054906101000a900460ff1681565b60648260ff16111561174c576040517f08c379a0000000000000000000000000000000000000000000000000000000008152600401611743906125e6565b60405180910390fd5b60648160ff161115611793576040517f08c379a000000000000000000000000000000000000000000000000000000000815260040161178a9061264e565b60405180910390fd5b60648160ff168360ff166117a791906123c9565b11156117e8576040517f08c379a00000000000000000000000000000000000000000000000000000000081526004016117df906126b6565b60405180910390fd5b81600560146101000a81548160ff021916908360ff16021790555080600560156101000a81548160ff021916908360ff1602179055507f638bc6bdf09408be08402506a3cece436130cc47708df908b7ee4aeeefe01c47828260405161184f9291906126d4565b60405180910390a15050565b611863611d4c565b6002611875611870611d8d565b611db6565b5f0181905550565b5f60015f9054906101000a900473ffffffffffffffffffffffffffffffffffffffff1673ffffffffffffffffffffffffffffffffffffffff1663acd72273836040518263ffffffff1660e01b81526004016118d89190612083565b602060405180830381865afa92505050801561191257506040513d601f19601f8201168201806040525081019061190f91906126fb565b60015b6119b65760015f9054906101000a900473ffffffffffffffffffffffffffffffffffffffff1673ffffffffffffffffffffffffffffffffffffffff16638c5ecdad836040518263ffffffff1660e01b81526004016119709190612083565b602060405180830381865afa15801561198b573d5f803e3d5ffd5b505050506040513d601f19601f820116820180604052508101906119af91906126fb565b90506119bb565b809150505b919050565b5f8373ffffffffffffffffffffffffffffffffffffffff16836040516119e590612753565b5f6040518083038185875af1925050503d805f8114611a1f576040519150601f19603f3d011682016040523d82523d5f602084013e611a24565b606091505b50509050808290611a6b576040517f08c379a0000000000000000000000000000000000000000000000000000000008152600401611a6291906127c7565b60405180910390fd5b5050505050565b5f73ffffffffffffffffffffffffffffffffffffffff1660055f9054906101000a900473ffffffffffffffffffffffffffffffffffffffff1673ffffffffffffffffffffffffffffffffffffffff1603611b0f57611b0a60045f9054906101000a900473ffffffffffffffffffffffffffffffffffffffff16826040518060600160405280602181526020016127e8602191396119c0565b611be6565b60055f9054906101000a900473ffffffffffffffffffffffffffffffffffffffff1673ffffffffffffffffffffffffffffffffffffffff1663e097a6bb82846040518363ffffffff1660e01b8152600401611b6a9190612083565b5f604051808303818588803b158015611b81575f80fd5b505af193505050508015611b93575060015b611be057611bdb60045f9054906101000a900473ffffffffffffffffffffffffffffffffffffffff16826040518060600160405280602181526020016127e8602191396119c0565b611be5565b611be6565b5b5050565b6001611bfc611bf7611d8d565b611db6565b5f0181905550565b611c0c611dbf565b73ffffffffffffffffffffffffffffffffffffffff16611c2a6111fd565b73ffffffffffffffffffffffffffffffffffffffff1614611c8957611c4d611dbf565b6040517f118cdaa7000000000000000000000000000000000000000000000000000000008152600401611c809190611fd7565b60405180910390fd5b565b5f805f9054906101000a900473ffffffffffffffffffffffffffffffffffffffff169050815f806101000a81548173ffffffffffffffffffffffffffffffffffffffff021916908373ffffffffffffffffffffffffffffffffffffffff1602179055508173ffffffffffffffffffffffffffffffffffffffff168173ffffffffffffffffffffffffffffffffffffffff167f8be0079c531659141344cd1fd0a4f28419497f9722a3daafe3b4186f6b6457e060405160405180910390a35050565b611d54611dc6565b15611d8b576040517f3ee5aeb500000000000000000000000000000000000000000000000000000000815260040160405180910390fd5b565b5f7f9b779b17422d0df92223018b32b4d1fa46e071723d6817e2486d003becc55f005f1b905090565b5f819050919050565b5f33905090565b5f6002611dd9611dd4611d8d565b611db6565b5f015414905090565b5f80fd5b5f819050919050565b611df881611de6565b8114611e02575f80fd5b50565b5f81359050611e1381611def565b92915050565b5f60208284031215611e2e57611e2d611de2565b5b5f611e3b84828501611e05565b91505092915050565b611e4d81611de6565b82525050565b5f606082019050611e665f830186611e44565b611e736020830185611e44565b611e806040830184611e44565b949350505050565b5f60ff82169050919050565b611e9d81611e88565b82525050565b5f602082019050611eb65f830184611e94565b92915050565b611ec581611e88565b8114611ecf575f80fd5b50565b5f81359050611ee081611ebc565b92915050565b5f8060408385031215611efc57611efb611de2565b5b5f611f0985828601611ed2565b9250506020611f1a85828601611ed2565b9150509250929050565b5f73ffffffffffffffffffffffffffffffffffffffff82169050919050565b5f819050919050565b5f611f66611f61611f5c84611f24565b611f43565b611f24565b9050919050565b5f611f7782611f4c565b9050919050565b5f611f8882611f6d565b9050919050565b611f9881611f7e565b82525050565b5f602082019050611fb15f830184611f8f565b92915050565b5f611fc182611f24565b9050919050565b611fd181611fb7565b82525050565b5f602082019050611fea5f830184611fc8565b92915050565b5f806040838503121561200657612005611de2565b5b5f61201385828601611e05565b925050602061202485828601611e05565b9150509250929050565b61203781611fb7565b8114612041575f80fd5b50565b5f813590506120528161202e565b92915050565b5f6020828403121561206d5761206c611de2565b5b5f61207a84828501612044565b91505092915050565b5f6020820190506120965f830184611e44565b92915050565b5f82825260208201905092915050565b7f4e6f74206d756c74697369672f6f776e657200000000000000000000000000005f82015250565b5f6120e060128361209c565b91506120eb826120ac565b602082019050919050565b5f6020820190508181035f83015261210d816120d4565b9050919050565b7f416d6f756e74206973207a65726f0000000000000000000000000000000000005f82015250565b5f612148600e8361209c565b915061215382612114565b602082019050919050565b5f6020820190508181035f8301526121758161213c565b9050919050565b7f416d6f756e742f76616c7565206d69736d6174636800000000000000000000005f82015250565b5f6121b060158361209c565b91506121bb8261217c565b602082019050919050565b5f6020820190508181035f8301526121dd816121a4565b9050919050565b5f8115159050919050565b6121f8816121e4565b8114612202575f80fd5b50565b5f81519050612213816121ef565b92915050565b5f6020828403121561222e5761222d611de2565b5b5f61223b84828501612205565b91505092915050565b5f8151905061225281611def565b92915050565b5f806040838503121561226e5761226d611de2565b5b5f61227b85828601612244565b925050602061228c85828601612244565b9150509250929050565b7f4e487b71000000000000000000000000000000000000000000000000000000005f52601160045260245ffd5b5f6122cd82611de6565b91506122d883611de6565b92508282026122e681611de6565b915082820484148315176122fd576122fc612296565b5b5092915050565b7f4e487b71000000000000000000000000000000000000000000000000000000005f52601260045260245ffd5b5f61233b82611de6565b915061234683611de6565b92508261235657612355612304565b5b828204905092915050565b5f61236b82611de6565b915061237683611de6565b925082820390508181111561238e5761238d612296565b5b92915050565b5f6060820190506123a75f830186611e44565b6123b46020830185611e44565b6123c16040830184611fc8565b949350505050565b5f6123d382611de6565b91506123de83611de6565b92508282019050808211156123f6576123f5612296565b5b92915050565b7f496e76616c6964206c6f616e20656e67696e65000000000000000000000000005f82015250565b5f61243060138361209c565b915061243b826123fc565b602082019050919050565b5f6020820190508181035f83015261245d81612424565b9050919050565b7f496e76616c6964206d756c7469736967000000000000000000000000000000005f82015250565b5f61249860108361209c565b91506124a382612464565b602082019050919050565b5f6020820190508181035f8301526124c58161248c565b9050919050565b7f496e76616c6964207472656173757279000000000000000000000000000000005f82015250565b5f61250060108361209c565b915061250b826124cc565b602082019050919050565b5f6020820190508181035f83015261252d816124f4565b9050919050565b7f496e76616c6964207265736572766500000000000000000000000000000000005f82015250565b5f612568600f8361209c565b915061257382612534565b602082019050919050565b5f6020820190508181035f8301526125958161255c565b9050919050565b7f52657365727665203e20313030000000000000000000000000000000000000005f82015250565b5f6125d0600d8361209c565b91506125db8261259c565b602082019050919050565b5f6020820190508181035f8301526125fd816125c4565b9050919050565b7f5472656173757279203e203130300000000000000000000000000000000000005f82015250565b5f612638600e8361209c565b915061264382612604565b602082019050919050565b5f6020820190508181035f8301526126658161262c565b9050919050565b7f436f6e666967206f766572666c6f7700000000000000000000000000000000005f82015250565b5f6126a0600f8361209c565b91506126ab8261266c565b602082019050919050565b5f6020820190508181035f8301526126cd81612694565b9050919050565b5f6040820190506126e75f830185611e94565b6126f46020830184611e94565b9392505050565b5f602082840312156127105761270f611de2565b5b5f61271d84828501612244565b91505092915050565b5f81905092915050565b50565b5f61273e5f83612726565b915061274982612730565b5f82019050919050565b5f61275d82612733565b9150819050919050565b5f81519050919050565b8281835e5f83830152505050565b5f601f19601f8301169050919050565b5f61279982612767565b6127a3818561209c565b93506127b3818560208601612771565b6127bc8161277f565b840191505092915050565b5f6020820190508181035f8301526127df818461278f565b90509291505056fe54726561737572792066616c6c6261636b207472616e73666572206661696c6564a2646970667358221220585199bb71c1aeab9948fe521380b72a6fba92c856cd0e7cce3dc7e3b281be3464736f6c634300081a0033",
  "linkReferences": {},
  "deployedLinkReferences": {}
}